{
  "contractName": "Lottery",
  "abi": [
    {
      "inputs": [
        {
          "internalType": "address",
          "name": "tokenAddress",
          "type": "address"
        }
      ],
      "stateMutability": "nonpayable",
      "type": "constructor"
    },
    {
      "anonymous": false,
      "inputs": [
        {
          "indexed": false,
          "internalType": "address",
          "name": "buyer",
          "type": "address"
        },
        {
          "indexed": false,
          "internalType": "uint256",
          "name": "amountOfETH",
          "type": "uint256"
        },
        {
          "indexed": false,
          "internalType": "uint256",
          "name": "amountOfTokens",
          "type": "uint256"
        }
      ],
      "name": "BuyTokens",
      "type": "event"
    },
    {
      "anonymous": false,
      "inputs": [
        {
          "indexed": false,
          "internalType": "address",
          "name": "addr",
          "type": "address"
        },
        {
          "indexed": false,
          "internalType": "uint256",
          "name": "amount",
          "type": "uint256"
        },
        {
          "indexed": false,
          "internalType": "string",
          "name": "msg",
          "type": "string"
        }
      ],
      "name": "Log",
      "type": "event"
    },
    {
      "anonymous": false,
      "inputs": [
        {
          "indexed": true,
          "internalType": "address",
          "name": "previousOwner",
          "type": "address"
        },
        {
          "indexed": true,
          "internalType": "address",
          "name": "newOwner",
          "type": "address"
        }
      ],
      "name": "OwnershipTransferred",
      "type": "event"
    },
    {
      "anonymous": false,
      "inputs": [
        {
          "indexed": false,
          "internalType": "address",
          "name": "buyer",
          "type": "address"
        },
        {
          "indexed": false,
          "internalType": "uint256",
          "name": "amountOfETH",
          "type": "uint256"
        },
        {
          "indexed": false,
          "internalType": "uint256",
          "name": "amountOfTokens",
          "type": "uint256"
        }
      ],
      "name": "SoldTokens",
      "type": "event"
    },
    {
      "anonymous": false,
      "inputs": [
        {
          "indexed": false,
          "internalType": "address",
          "name": "winner",
          "type": "address"
        },
        {
          "indexed": false,
          "internalType": "uint256",
          "name": "winnings",
          "type": "uint256"
        }
      ],
      "name": "WinnerDeclared",
      "type": "event"
    },
    {
      "inputs": [],
      "name": "lastWinner",
      "outputs": [
        {
          "internalType": "address",
          "name": "",
          "type": "address"
        }
      ],
      "stateMutability": "view",
      "type": "function",
      "constant": true
    },
    {
      "inputs": [],
      "name": "lottery_state",
      "outputs": [
        {
          "internalType": "enum Lottery.LOTTERY_STATE",
          "name": "",
          "type": "uint8"
        }
      ],
      "stateMutability": "view",
      "type": "function",
      "constant": true
    },
    {
      "inputs": [],
      "name": "owner",
      "outputs": [
        {
          "internalType": "address",
          "name": "",
          "type": "address"
        }
      ],
      "stateMutability": "view",
      "type": "function",
      "constant": true
    },
    {
      "inputs": [],
      "name": "player",
      "outputs": [
        {
          "internalType": "address",
          "name": "addr",
          "type": "address"
        },
        {
          "internalType": "uint256",
          "name": "totalEntered",
          "type": "uint256"
        }
      ],
      "stateMutability": "view",
      "type": "function",
      "constant": true
    },
    {
      "inputs": [
        {
          "internalType": "address",
          "name": "",
          "type": "address"
        }
      ],
      "name": "players",
      "outputs": [
        {
          "internalType": "address",
          "name": "addr",
          "type": "address"
        },
        {
          "internalType": "uint256",
          "name": "totalEntered",
          "type": "uint256"
        }
      ],
      "stateMutability": "view",
      "type": "function",
      "constant": true
    },
    {
      "inputs": [
        {
          "internalType": "uint256",
          "name": "",
          "type": "uint256"
        }
      ],
      "name": "playersAddresses",
      "outputs": [
        {
          "internalType": "address payable",
          "name": "",
          "type": "address"
        }
      ],
      "stateMutability": "view",
      "type": "function",
      "constant": true
    },
    {
      "inputs": [],
      "name": "renounceOwnership",
      "outputs": [],
      "stateMutability": "nonpayable",
      "type": "function"
    },
    {
      "inputs": [],
      "name": "token",
      "outputs": [
        {
          "internalType": "contract LotteryToken",
          "name": "",
          "type": "address"
        }
      ],
      "stateMutability": "view",
      "type": "function",
      "constant": true
    },
    {
      "inputs": [
        {
          "internalType": "address",
          "name": "newOwner",
          "type": "address"
        }
      ],
      "name": "transferOwnership",
      "outputs": [],
      "stateMutability": "nonpayable",
      "type": "function"
    },
    {
      "inputs": [],
      "name": "closeLottery",
      "outputs": [],
      "stateMutability": "nonpayable",
      "type": "function"
    },
    {
      "inputs": [],
      "name": "openLottery",
      "outputs": [],
      "stateMutability": "nonpayable",
      "type": "function"
    },
    {
      "inputs": [],
      "name": "buyLotteryTokens",
      "outputs": [
        {
          "internalType": "uint256",
          "name": "tokenAmount",
          "type": "uint256"
        }
      ],
      "stateMutability": "payable",
      "type": "function",
      "payable": true
    },
    {
      "inputs": [
        {
          "internalType": "uint256",
          "name": "lotteryTokensAmountToEnter",
          "type": "uint256"
        }
      ],
      "name": "enterLottery",
      "outputs": [],
      "stateMutability": "nonpayable",
      "type": "function"
    },
    {
      "inputs": [],
      "name": "getRandomNumber",
      "outputs": [
        {
          "internalType": "uint256",
          "name": "",
          "type": "uint256"
        }
      ],
      "stateMutability": "view",
      "type": "function",
      "constant": true
    },
    {
      "inputs": [],
      "name": "pickWinner",
      "outputs": [],
      "stateMutability": "nonpayable",
      "type": "function"
    }
  ],
  "bytecode": "0x60806040523480156200001157600080fd5b50604051620023c1380380620023c1833981810160405281019062000037919062000202565b620000576200004b620000cc60201b60201c565b620000d460201b60201c565b80600360006101000a81548173ffffffffffffffffffffffffffffffffffffffff021916908373ffffffffffffffffffffffffffffffffffffffff16021790555060008060146101000a81548160ff02191690836002811115620000c057620000bf62000234565b5b02179055505062000263565b600033905090565b60008060009054906101000a900473ffffffffffffffffffffffffffffffffffffffff169050816000806101000a81548173ffffffffffffffffffffffffffffffffffffffff021916908373ffffffffffffffffffffffffffffffffffffffff1602179055508173ffffffffffffffffffffffffffffffffffffffff168173ffffffffffffffffffffffffffffffffffffffff167f8be0079c531659141344cd1fd0a4f28419497f9722a3daafe3b4186f6b6457e060405160405180910390a35050565b600080fd5b600073ffffffffffffffffffffffffffffffffffffffff82169050919050565b6000620001ca826200019d565b9050919050565b620001dc81620001bd565b8114620001e857600080fd5b50565b600081519050620001fc81620001d1565b92915050565b6000602082840312156200021b576200021a62000198565b5b60006200022b84828501620001eb565b91505092915050565b7f4e487b7100000000000000000000000000000000000000000000000000000000600052602160045260246000fd5b61214e80620002736000396000f3fe6080604052600436106100e85760003560e01c8063814479991161008a578063e2eb41ff11610059578063e2eb41ff1461027a578063f2fde38b146102b8578063fc0c546a146102e1578063fe1881841461030c576100e8565b806381447999146101e25780638da5cb5b1461020d5780639dfecdcc14610238578063dbdff2c11461024f576100e8565b8063589281f4116100c6578063589281f41461017f5780635d495aea1461019d5780636fd09816146101b4578063715018a6146101cb576100e8565b80633fd43098146100ed578063472016da1461011657806348db5f8914610153575b600080fd5b3480156100f957600080fd5b50610114600480360381019061010f9190611460565b610337565b005b34801561012257600080fd5b5061013d60048036038101906101389190611460565b61065c565b60405161014a91906114ce565b60405180910390f35b34801561015f57600080fd5b5061016861069b565b604051610176929190611519565b60405180910390f35b6101876106cd565b6040516101949190611542565b60405180910390f35b3480156101a957600080fd5b506101b26109d8565b005b3480156101c057600080fd5b506101c9610bbc565b005b3480156101d757600080fd5b506101e0610cc7565b005b3480156101ee57600080fd5b506101f7610cdb565b60405161020491906115d4565b60405180910390f35b34801561021957600080fd5b50610222610cee565b60405161022f91906115ef565b60405180910390f35b34801561024457600080fd5b5061024d610d17565b005b34801561025b57600080fd5b50610264610dc1565b6040516102719190611542565b60405180910390f35b34801561028657600080fd5b506102a1600480360381019061029c9190611636565b610dfc565b6040516102af929190611519565b60405180910390f35b3480156102c457600080fd5b506102df60048036038101906102da9190611636565b610e40565b005b3480156102ed57600080fd5b506102f6610ec3565b60405161030391906116c2565b60405180910390f35b34801561031857600080fd5b50610321610ee9565b60405161032e91906115ef565b60405180910390f35b6000600281111561034b5761034a61155d565b5b600060149054906101000a900460ff16600281111561036d5761036c61155d565b5b146103ad576040517f08c379a00000000000000000000000000000000000000000000000000000000081526004016103a49061173a565b60405180910390fd5b6000600360009054906101000a900473ffffffffffffffffffffffffffffffffffffffff1673ffffffffffffffffffffffffffffffffffffffff166370a08231336040518263ffffffff1660e01b815260040161040a91906115ef565b602060405180830381865afa158015610427573d6000803e3d6000fd5b505050506040513d601f19601f8201168201806040525081019061044b919061176f565b90506000811015610491576040517f08c379a000000000000000000000000000000000000000000000000000000000815260040161048890611834565b60405180910390fd5b60648210156104d5576040517f08c379a00000000000000000000000000000000000000000000000000000000081526004016104cc906118c6565b60405180910390fd5b600360009054906101000a900473ffffffffffffffffffffffffffffffffffffffff1673ffffffffffffffffffffffffffffffffffffffff166323b872dd3330856040518463ffffffff1660e01b8152600401610534939291906118e6565b6020604051808303816000875af1158015610553573d6000803e3d6000fd5b505050506040513d601f19601f820116820180604052508101906105779190611955565b506000600660003373ffffffffffffffffffffffffffffffffffffffff1673ffffffffffffffffffffffffffffffffffffffff1681526020019081526020016000206001015411156105d2576105cd3383610f0f565b6105dd565b6105dc3383611097565b5b7f4e3358e5bdb38f499a83fbcd33d16343569f3b6fe53021022dede6364017b4a833600660003373ffffffffffffffffffffffffffffffffffffffff1673ffffffffffffffffffffffffffffffffffffffff168152602001908152602001600020600101546040516106509291906119ce565b60405180910390a15050565b6001818154811061066c57600080fd5b906000526020600020016000915054906101000a900473ffffffffffffffffffffffffffffffffffffffff1681565b60048060000160009054906101000a900473ffffffffffffffffffffffffffffffffffffffff16908060010154905082565b60008060028111156106e2576106e161155d565b5b600060149054906101000a900460ff1660028111156107045761070361155d565b5b14610744576040517f08c379a000000000000000000000000000000000000000000000000000000000815260040161073b9061173a565b60405180910390fd5b67016345785d8a0000341461078e576040517f08c379a000000000000000000000000000000000000000000000000000000000815260040161078590611a7c565b60405180910390fd5b6000606490507f4e3358e5bdb38f499a83fbcd33d16343569f3b6fe53021022dede6364017b4a833826040516107c5929190611ae8565b60405180910390a16000600360009054906101000a900473ffffffffffffffffffffffffffffffffffffffff1673ffffffffffffffffffffffffffffffffffffffff166370a08231306040518263ffffffff1660e01b815260040161082a91906115ef565b602060405180830381865afa158015610847573d6000803e3d6000fd5b505050506040513d601f19601f8201168201806040525081019061086b919061176f565b9050818110156108b0576040517f08c379a00000000000000000000000000000000000000000000000000000000081526004016108a790611b96565b60405180910390fd5b6000600360009054906101000a900473ffffffffffffffffffffffffffffffffffffffff1673ffffffffffffffffffffffffffffffffffffffff1663a9059cbb33856040518363ffffffff1660e01b815260040161090f929190611519565b6020604051808303816000875af115801561092e573d6000803e3d6000fd5b505050506040513d601f19601f820116820180604052508101906109529190611955565b905080610994576040517f08c379a000000000000000000000000000000000000000000000000000000000815260040161098b90611c02565b60405180910390fd5b7f0a37b72bb67eee30e09084cf386f8a17817c57f620c3ab95fb25d6a20356ec773334856040516109c793929190611c22565b60405180910390a182935050505090565b600060028111156109ec576109eb61155d565b5b600060149054906101000a900460ff166002811115610a0e57610a0d61155d565b5b14610a4e576040517f08c379a0000000000000000000000000000000000000000000000000000000008152600401610a459061173a565b60405180910390fd5b610a56611234565b6001808080549050610a689190611c88565b81548110610a7957610a78611cbc565b5b9060005260206000200160009054906101000a900473ffffffffffffffffffffffffffffffffffffffff16600260006101000a81548173ffffffffffffffffffffffffffffffffffffffff021916908373ffffffffffffffffffffffffffffffffffffffff1602179055506000479050600260009054906101000a900473ffffffffffffffffffffffffffffffffffffffff1673ffffffffffffffffffffffffffffffffffffffff166108fc600147610b329190611ceb565b9081150290604051600060405180830381858888f19350505050158015610b5d573d6000803e3d6000fd5b507f3cf1af53e79884a92609ce59db1ec9f584d88e2d14c8eaba43a21db81318301e600260009054906101000a900473ffffffffffffffffffffffffffffffffffffffff1682604051610bb1929190611519565b60405180910390a150565b610bc4611234565b60016002811115610bd857610bd761155d565b5b600060149054906101000a900460ff166002811115610bfa57610bf961155d565b5b03610c3a576040517f08c379a0000000000000000000000000000000000000000000000000000000008152600401610c3190611d91565b60405180910390fd5b600067ffffffffffffffff811115610c5557610c54611db1565b5b604051908082528060200260200182016040528015610c835781602001602082028036833780820191505090505b5060019080519060200190610c9992919061137e565b506001600060146101000a81548160ff02191690836002811115610cc057610cbf61155d565b5b0217905550565b610ccf611234565b610cd960006112b2565b565b600060149054906101000a900460ff1681565b60008060009054906101000a900473ffffffffffffffffffffffffffffffffffffffff16905090565b610d1f611234565b60016002811115610d3357610d3261155d565b5b600060149054906101000a900460ff166002811115610d5557610d5461155d565b5b14610d95576040517f08c379a0000000000000000000000000000000000000000000000000000000008152600401610d8c90611e2c565b60405180910390fd5b60008060146101000a81548160ff02191690836002811115610dba57610db961155d565b5b0217905550565b60008044426001604051602001610dda93929190611f8b565b6040516020818303038152906040528051906020012060001c90508091505090565b60066020528060005260406000206000915090508060000160009054906101000a900473ffffffffffffffffffffffffffffffffffffffff16908060010154905082565b610e48611234565b600073ffffffffffffffffffffffffffffffffffffffff168173ffffffffffffffffffffffffffffffffffffffff1603610eb7576040517f08c379a0000000000000000000000000000000000000000000000000000000008152600401610eae90612036565b60405180910390fd5b610ec0816112b2565b50565b600360009054906101000a900473ffffffffffffffffffffffffffffffffffffffff1681565b600260009054906101000a900473ffffffffffffffffffffffffffffffffffffffff1681565b600660008373ffffffffffffffffffffffffffffffffffffffff1673ffffffffffffffffffffffffffffffffffffffff16815260200190815260200160002060046000820160009054906101000a900473ffffffffffffffffffffffffffffffffffffffff168160000160006101000a81548173ffffffffffffffffffffffffffffffffffffffff021916908373ffffffffffffffffffffffffffffffffffffffff1602179055506001820154816001015590505080600460010154610fd59190612056565b6004600101819055506004600660008473ffffffffffffffffffffffffffffffffffffffff1673ffffffffffffffffffffffffffffffffffffffff1681526020019081526020016000206000820160009054906101000a900473ffffffffffffffffffffffffffffffffffffffff168160000160006101000a81548173ffffffffffffffffffffffffffffffffffffffff021916908373ffffffffffffffffffffffffffffffffffffffff160217905550600182015481600101559050505050565b6001829080600181540180825580915050600190039060005260206000200160009091909190916101000a81548173ffffffffffffffffffffffffffffffffffffffff021916908373ffffffffffffffffffffffffffffffffffffffff16021790555060405180604001604052808373ffffffffffffffffffffffffffffffffffffffff16815260200182815250600460008201518160000160006101000a81548173ffffffffffffffffffffffffffffffffffffffff021916908373ffffffffffffffffffffffffffffffffffffffff160217905550602082015181600101559050506004600660008473ffffffffffffffffffffffffffffffffffffffff1673ffffffffffffffffffffffffffffffffffffffff1681526020019081526020016000206000820160009054906101000a900473ffffffffffffffffffffffffffffffffffffffff168160000160006101000a81548173ffffffffffffffffffffffffffffffffffffffff021916908373ffffffffffffffffffffffffffffffffffffffff160217905550600182015481600101559050505050565b61123c611376565b73ffffffffffffffffffffffffffffffffffffffff1661125a610cee565b73ffffffffffffffffffffffffffffffffffffffff16146112b0576040517f08c379a00000000000000000000000000000000000000000000000000000000081526004016112a7906120f8565b60405180910390fd5b565b60008060009054906101000a900473ffffffffffffffffffffffffffffffffffffffff169050816000806101000a81548173ffffffffffffffffffffffffffffffffffffffff021916908373ffffffffffffffffffffffffffffffffffffffff1602179055508173ffffffffffffffffffffffffffffffffffffffff168173ffffffffffffffffffffffffffffffffffffffff167f8be0079c531659141344cd1fd0a4f28419497f9722a3daafe3b4186f6b6457e060405160405180910390a35050565b600033905090565b8280548282559060005260206000209081019282156113f7579160200282015b828111156113f65782518260006101000a81548173ffffffffffffffffffffffffffffffffffffffff021916908373ffffffffffffffffffffffffffffffffffffffff1602179055509160200191906001019061139e565b5b5090506114049190611408565b5090565b5b80821115611421576000816000905550600101611409565b5090565b600080fd5b6000819050919050565b61143d8161142a565b811461144857600080fd5b50565b60008135905061145a81611434565b92915050565b60006020828403121561147657611475611425565b5b60006114848482850161144b565b91505092915050565b600073ffffffffffffffffffffffffffffffffffffffff82169050919050565b60006114b88261148d565b9050919050565b6114c8816114ad565b82525050565b60006020820190506114e360008301846114bf565b92915050565b60006114f48261148d565b9050919050565b611504816114e9565b82525050565b6115138161142a565b82525050565b600060408201905061152e60008301856114fb565b61153b602083018461150a565b9392505050565b6000602082019050611557600083018461150a565b92915050565b7f4e487b7100000000000000000000000000000000000000000000000000000000600052602160045260246000fd5b6003811061159d5761159c61155d565b5b50565b60008190506115ae8261158c565b919050565b60006115be826115a0565b9050919050565b6115ce816115b3565b82525050565b60006020820190506115e960008301846115c5565b92915050565b600060208201905061160460008301846114fb565b92915050565b611613816114e9565b811461161e57600080fd5b50565b6000813590506116308161160a565b92915050565b60006020828403121561164c5761164b611425565b5b600061165a84828501611621565b91505092915050565b6000819050919050565b600061168861168361167e8461148d565b611663565b61148d565b9050919050565b600061169a8261166d565b9050919050565b60006116ac8261168f565b9050919050565b6116bc816116a1565b82525050565b60006020820190506116d760008301846116b3565b92915050565b600082825260208201905092915050565b7f4c6f7474657279204953206e6f74206f70656e00000000000000000000000000600082015250565b60006117246013836116dd565b915061172f826116ee565b602082019050919050565b6000602082019050818103600083015261175381611717565b9050919050565b60008151905061176981611434565b92915050565b60006020828403121561178557611784611425565b5b60006117938482850161175a565b91505092915050565b7f596f75206e65656420746f20617070726f7665206c6f7474657279546f6b656e60008201527f732066726f6d20746865206c6f747465727920636f6e7472616374206669727360208201527f7400000000000000000000000000000000000000000000000000000000000000604082015250565b600061181e6041836116dd565b91506118298261179c565b606082019050919050565b6000602082019050818103600083015261184d81611811565b9050919050565b7f4d696e696d756d20313030204c6f7474657279546f6b656e7320746f20656e7460008201527f6572000000000000000000000000000000000000000000000000000000000000602082015250565b60006118b06022836116dd565b91506118bb82611854565b604082019050919050565b600060208201905081810360008301526118df816118a3565b9050919050565b60006060820190506118fb60008301866114fb565b61190860208301856114fb565b611915604083018461150a565b949350505050565b60008115159050919050565b6119328161191d565b811461193d57600080fd5b50565b60008151905061194f81611929565b92915050565b60006020828403121561196b5761196a611425565b5b600061197984828501611940565b91505092915050565b7f4c6f747465727920456e74657265640000000000000000000000000000000000600082015250565b60006119b8600f836116dd565b91506119c382611982565b602082019050919050565b60006060820190506119e360008301856114fb565b6119f0602083018461150a565b8181036040830152611a01816119ab565b90509392505050565b7f53656e64206f6e6c7920302e312045544820746f206275792031303020746f6b60008201527f656e730000000000000000000000000000000000000000000000000000000000602082015250565b6000611a666023836116dd565b9150611a7182611a0a565b604082019050919050565b60006020820190508181036000830152611a9581611a59565b9050919050565b7f426f7567687420746f6b656e7300000000000000000000000000000000000000600082015250565b6000611ad2600d836116dd565b9150611add82611a9c565b602082019050919050565b6000606082019050611afd60008301856114fb565b611b0a602083018461150a565b8181036040830152611b1b81611ac5565b90509392505050565b7f56656e646f7220636f6e747261637420686173206e6f7420656e6f756768207460008201527f6f6b656e7320696e206974732062616c616e6365000000000000000000000000602082015250565b6000611b806034836116dd565b9150611b8b82611b24565b604082019050919050565b60006020820190508181036000830152611baf81611b73565b9050919050565b7f4661696c656420746f207472616e7366657220746f6b656e20746f2075736572600082015250565b6000611bec6020836116dd565b9150611bf782611bb6565b602082019050919050565b60006020820190508181036000830152611c1b81611bdf565b9050919050565b6000606082019050611c3760008301866114fb565b611c44602083018561150a565b611c51604083018461150a565b949350505050565b7f4e487b7100000000000000000000000000000000000000000000000000000000600052601160045260246000fd5b6000611c938261142a565b9150611c9e8361142a565b925082821015611cb157611cb0611c59565b5b828203905092915050565b7f4e487b7100000000000000000000000000000000000000000000000000000000600052603260045260246000fd5b6000611cf68261142a565b9150611d018361142a565b9250817fffffffffffffffffffffffffffffffffffffffffffffffffffffffffffffffff0483118215151615611d3a57611d39611c59565b5b828202905092915050565b7f4c6f747465727920616c726561647920636c6f73656400000000000000000000600082015250565b6000611d7b6016836116dd565b9150611d8682611d45565b602082019050919050565b60006020820190508181036000830152611daa81611d6e565b9050919050565b7f4e487b7100000000000000000000000000000000000000000000000000000000600052604160045260246000fd5b7f4c6f747465727920616c7265616479206f70656e000000000000000000000000600082015250565b6000611e166014836116dd565b9150611e2182611de0565b602082019050919050565b60006020820190508181036000830152611e4581611e09565b9050919050565b6000819050919050565b611e67611e628261142a565b611e4c565b82525050565b600081549050919050565b600081905092915050565b60008190508160005260206000209050919050565b611ea1816114ad565b82525050565b6000611eb38383611e98565b60208301905092915050565b60008160001c9050919050565b600073ffffffffffffffffffffffffffffffffffffffff82169050919050565b6000611eff611efa83611ebf565b611ecc565b9050919050565b6000611f128254611eec565b9050919050565b6000600182019050919050565b6000611f3182611e6d565b611f3b8185611e78565b9350611f4683611e83565b8060005b83811015611f7e57611f5b82611f06565b611f658882611ea7565b9750611f7083611f19565b925050600181019050611f4a565b5085935050505092915050565b6000611f978286611e56565b602082019150611fa78285611e56565b602082019150611fb78284611f26565b9150819050949350505050565b7f4f776e61626c653a206e6577206f776e657220697320746865207a65726f206160008201527f6464726573730000000000000000000000000000000000000000000000000000602082015250565b60006120206026836116dd565b915061202b82611fc4565b604082019050919050565b6000602082019050818103600083015261204f81612013565b9050919050565b60006120618261142a565b915061206c8361142a565b9250827fffffffffffffffffffffffffffffffffffffffffffffffffffffffffffffffff038211156120a1576120a0611c59565b5b828201905092915050565b7f4f776e61626c653a2063616c6c6572206973206e6f7420746865206f776e6572600082015250565b60006120e26020836116dd565b91506120ed826120ac565b602082019050919050565b60006020820190508181036000830152612111816120d5565b905091905056fea2646970667358221220e56799d5ecef5af5a170db69a6b746c5a93b5111859f1ad656da753b45bf560f64736f6c634300080d0033",
  "immutableReferences": {},
  "source": "// SPDX-License-Identifier: GPL-3.0\n\npragma solidity >=0.4.22 <0.9.0;\n\nimport \"@openzeppelin/contracts/access/Ownable.sol\";\n\nimport \"./Events.sol\";\nimport \"./LotteryToken.sol\";\n\ncontract Lottery is Ownable, Events {\n    enum LOTTERY_STATE {\n        OPEN,\n        CLOSED,\n        CALCULATING_WINNER\n    }\n    LOTTERY_STATE public lottery_state;\n    uint256 private constant _PRIZE_FUND = 1000;\n    address payable[] public playersAddresses;\n    address public lastWinner;\n\n    LotteryToken public token;\n\n    struct Player {\n        address addr;\n        uint256 totalEntered;\n    }\n\n    Player public player;\n    mapping(address => Player) public players;\n\n    constructor(address tokenAddress) {\n        token = LotteryToken(tokenAddress);\n        lottery_state = LOTTERY_STATE.OPEN;\n    }\n\n    modifier lotteryIsOpen() {\n        require(lottery_state == LOTTERY_STATE.OPEN, \"Lottery IS not open\");\n        _;\n    }\n\n    function setPLayer(address addr, uint256 amount) private {\n        playersAddresses.push(payable(addr));\n        player = Player(addr, amount);\n        players[addr] = player;\n    }\n\n    function updatePLayer(address addr, uint256 amount) private {\n        player = players[addr];\n        player.totalEntered = player.totalEntered + amount;\n        players[addr] = player;\n    }\n\n    function closeLottery() public onlyOwner {\n        require(\n            lottery_state != LOTTERY_STATE.CLOSED,\n            \"Lottery already closed\"\n        );\n        // reset dynamic memory array\n        playersAddresses = new address payable[](0);\n        lottery_state = LOTTERY_STATE.CLOSED;\n    }\n\n    function openLottery() public onlyOwner {\n        require(lottery_state == LOTTERY_STATE.CLOSED, \"Lottery already open\");\n        lottery_state = LOTTERY_STATE.OPEN;\n    }\n\n    function buyLotteryTokens()\n        external\n        payable\n        lotteryIsOpen\n        returns (uint256 tokenAmount)\n    {\n        // 0.1 ether == \"100000000000000000\"\n        require(msg.value == 0.1 ether, \"Send only 0.1 ETH to buy 100 tokens\");\n\n        // Can only buy 100 at a time.\n        uint256 amountToBuy = 100;\n\n        emit Log(msg.sender, amountToBuy, \"Bought tokens\");\n        // basically this on cmd lotteryToken.balanceOf(lottery.address)\n        uint256 lotteryTokenBalance = token.balanceOf(address(this));\n        require(\n            lotteryTokenBalance >= amountToBuy,\n            \"Vendor contract has not enough tokens in its balance\"\n        );\n\n        // Contract A calls Contract B\n        // _transfer(lotteryContract, account[1], amountToBuy);\n        // msg.sender is different from msg.sender in the erc20 as its the lotteryContract in erc20\n        bool sent = token.transfer(msg.sender, amountToBuy);\n        require(sent, \"Failed to transfer token to user\");\n\n        emit BuyTokens(msg.sender, msg.value, amountToBuy);\n\n        return amountToBuy;\n    }\n\n    function enterLottery(uint256 lotteryTokensAmountToEnter)\n        external\n        lotteryIsOpen\n    {\n        uint256 playerBalance = token.balanceOf(msg.sender);\n        require(\n            playerBalance >= 0,\n            \"You need to approve lotteryTokens from the lottery contract first\"\n        );\n        require(\n            lotteryTokensAmountToEnter >= 100,\n            \"Minimum 100 LotteryTokens to enter\"\n        );\n\n        // does not work\n        // token.approve(address(this), amountToEnter)\n        // because Lottery calls LotteryToken and msg.sender becomes Lottery in LotteryToken.approve\n        // not the msg.sender of the call to enterLottery()\n        // Contract A calls Contract B\n\n        // so bought them and then send back to enter the lottery.\n        token.transferFrom(\n            msg.sender,\n            address(this),\n            lotteryTokensAmountToEnter\n        );\n\n        if (players[msg.sender].totalEntered > 0) {\n            updatePLayer(msg.sender, lotteryTokensAmountToEnter);\n        } else {\n            // new player\n            setPLayer(msg.sender, lotteryTokensAmountToEnter);\n        }\n\n        emit Log(\n            msg.sender,\n            players[msg.sender].totalEntered,\n            \"Lottery Entered\"\n        );\n    }\n\n    function getRandomNumber() public view returns (uint256) {\n        uint256 rnd = uint256(\n            keccak256(\n                abi.encodePacked(\n                    block.difficulty,\n                    block.timestamp,\n                    playersAddresses\n                )\n            )\n        );\n\n        return rnd;\n    }\n\n    function pickWinner() public lotteryIsOpen onlyOwner {\n        //lottery_state = LOTTERY_STATE.CALCULATING_WINNER;\n\n        // TODO with getRandomNumber()\n        lastWinner = playersAddresses[playersAddresses.length - 1];\n        uint256 winnings = address(this).balance;\n\n        //closeLottery();\n\n        payable(lastWinner).transfer(address(this).balance * 1);\n\n        // 10% cut for the owner\n        //payable(owner).transfer(address(this).balance * 0.1);\n\n        emit WinnerDeclared(lastWinner, winnings);\n    }\n}\n\n// cmds\n\n// const lottery  = await Lottery.deployed()\n// const lotteryToken  = await LotteryToken.deployed()\n\n// web3.eth.getBalance(lottery.address);  // no eth\n// lotteryToken.balanceOf(lottery.address) // gives lottery quota 1000000\n\n// await lotteryToken.totalSupply() // gives max coins 2500000\n\n// lotteryToken.balanceOf(accounts[1])  0\n\n// lottery.buyLotteryTokens({ from:accounts[1], value:\"100000000000000000\"})\n\n// must approve from the token first.\n// lotteryToken.allowance(accounts[1], lottery.address) // 0\n// lotteryToken.approve(lottery.address, \"100\", { from:accounts[1] }); // owner => (spender => amount)\n// lotteryToken.allowance(accounts[1], lottery.address) // 100\n\n// Now enter and use the transferFrom\n// const res = await lottery.enterLottery(\"100\", { from:accounts[1] })\n\n// lottery.playersEnteredBalance[accounts[1]]\n\n// lottery.pickWinner()\n\n// Other\n// res.logs[1].args.amount\n\n// fromWei converts any wei value into a ether value.\n// const amountToBuy =  web3.utils.fromWei(\"100000000000000000\")\n\n// LotteryToken.allowance(accounts[1], Lottery.address)\n",
  "sourcePath": "/Users/zak/Dropbox/Code/dapps/lottery/contracts/Lottery.sol",
  "compiler": {
    "name": "solc",
    "version": "0.8.13+commit.abaa5c0e.Emscripten.clang"
  },
  "schemaVersion": "3.4.11",
  "updatedAt": "2023-01-11T13:28:21.911Z",
  "networkType": "ethereum",
  "devdoc": {
    "kind": "dev",
    "methods": {
      "owner()": {
        "details": "Returns the address of the current owner."
      },
      "renounceOwnership()": {
        "details": "Leaves the contract without owner. It will not be possible to call `onlyOwner` functions anymore. Can only be called by the current owner. NOTE: Renouncing ownership will leave the contract without an owner, thereby removing any functionality that is only available to the owner."
      },
      "transferOwnership(address)": {
        "details": "Transfers ownership of the contract to a new account (`newOwner`). Can only be called by the current owner."
      }
    },
    "version": 1
  },
  "userdoc": {
    "kind": "user",
    "methods": {},
    "version": 1
  }
}