{
  "contractName": "Lottery",
  "abi": [
    {
      "inputs": [
        {
          "internalType": "address",
          "name": "tokenAddress",
          "type": "address"
        }
      ],
      "stateMutability": "nonpayable",
      "type": "constructor"
    },
    {
      "anonymous": false,
      "inputs": [
        {
          "indexed": false,
          "internalType": "address",
          "name": "buyer",
          "type": "address"
        },
        {
          "indexed": false,
          "internalType": "uint256",
          "name": "amountOfETH",
          "type": "uint256"
        },
        {
          "indexed": false,
          "internalType": "uint256",
          "name": "amountOfTokens",
          "type": "uint256"
        }
      ],
      "name": "BuyTokens",
      "type": "event"
    },
    {
      "anonymous": false,
      "inputs": [
        {
          "indexed": false,
          "internalType": "address",
          "name": "addr",
          "type": "address"
        },
        {
          "indexed": false,
          "internalType": "uint256",
          "name": "amount",
          "type": "uint256"
        },
        {
          "indexed": false,
          "internalType": "string",
          "name": "msg",
          "type": "string"
        }
      ],
      "name": "Log",
      "type": "event"
    },
    {
      "anonymous": false,
      "inputs": [
        {
          "indexed": true,
          "internalType": "address",
          "name": "previousOwner",
          "type": "address"
        },
        {
          "indexed": true,
          "internalType": "address",
          "name": "newOwner",
          "type": "address"
        }
      ],
      "name": "OwnershipTransferred",
      "type": "event"
    },
    {
      "anonymous": false,
      "inputs": [
        {
          "indexed": false,
          "internalType": "address",
          "name": "buyer",
          "type": "address"
        },
        {
          "indexed": false,
          "internalType": "uint256",
          "name": "amountOfETH",
          "type": "uint256"
        },
        {
          "indexed": false,
          "internalType": "uint256",
          "name": "amountOfTokens",
          "type": "uint256"
        }
      ],
      "name": "SoldTokens",
      "type": "event"
    },
    {
      "anonymous": false,
      "inputs": [
        {
          "indexed": false,
          "internalType": "address",
          "name": "winner",
          "type": "address"
        },
        {
          "indexed": false,
          "internalType": "uint256",
          "name": "winnings",
          "type": "uint256"
        }
      ],
      "name": "WinnerDeclared",
      "type": "event"
    },
    {
      "inputs": [],
      "name": "lastWinner",
      "outputs": [
        {
          "internalType": "address",
          "name": "",
          "type": "address"
        }
      ],
      "stateMutability": "view",
      "type": "function",
      "constant": true
    },
    {
      "inputs": [],
      "name": "lottery_state",
      "outputs": [
        {
          "internalType": "enum Lottery.LOTTERY_STATE",
          "name": "",
          "type": "uint8"
        }
      ],
      "stateMutability": "view",
      "type": "function",
      "constant": true
    },
    {
      "inputs": [],
      "name": "owner",
      "outputs": [
        {
          "internalType": "address",
          "name": "",
          "type": "address"
        }
      ],
      "stateMutability": "view",
      "type": "function",
      "constant": true
    },
    {
      "inputs": [],
      "name": "player",
      "outputs": [
        {
          "internalType": "address",
          "name": "addr",
          "type": "address"
        },
        {
          "internalType": "uint256",
          "name": "totalEntered",
          "type": "uint256"
        }
      ],
      "stateMutability": "view",
      "type": "function",
      "constant": true
    },
    {
      "inputs": [
        {
          "internalType": "address",
          "name": "",
          "type": "address"
        }
      ],
      "name": "players",
      "outputs": [
        {
          "internalType": "address",
          "name": "addr",
          "type": "address"
        },
        {
          "internalType": "uint256",
          "name": "totalEntered",
          "type": "uint256"
        }
      ],
      "stateMutability": "view",
      "type": "function",
      "constant": true
    },
    {
      "inputs": [
        {
          "internalType": "uint256",
          "name": "",
          "type": "uint256"
        }
      ],
      "name": "playersAddresses",
      "outputs": [
        {
          "internalType": "address payable",
          "name": "",
          "type": "address"
        }
      ],
      "stateMutability": "view",
      "type": "function",
      "constant": true
    },
    {
      "inputs": [],
      "name": "renounceOwnership",
      "outputs": [],
      "stateMutability": "nonpayable",
      "type": "function"
    },
    {
      "inputs": [],
      "name": "saleTokens",
      "outputs": [
        {
          "internalType": "address",
          "name": "",
          "type": "address"
        }
      ],
      "stateMutability": "view",
      "type": "function",
      "constant": true
    },
    {
      "inputs": [],
      "name": "token",
      "outputs": [
        {
          "internalType": "contract LotteryToken",
          "name": "",
          "type": "address"
        }
      ],
      "stateMutability": "view",
      "type": "function",
      "constant": true
    },
    {
      "inputs": [
        {
          "internalType": "address",
          "name": "newOwner",
          "type": "address"
        }
      ],
      "name": "transferOwnership",
      "outputs": [],
      "stateMutability": "nonpayable",
      "type": "function"
    },
    {
      "inputs": [],
      "name": "closeLottery",
      "outputs": [],
      "stateMutability": "nonpayable",
      "type": "function"
    },
    {
      "inputs": [],
      "name": "openLottery",
      "outputs": [],
      "stateMutability": "nonpayable",
      "type": "function"
    },
    {
      "inputs": [],
      "name": "buyLotteryTokens",
      "outputs": [
        {
          "internalType": "uint256",
          "name": "tokenAmount",
          "type": "uint256"
        }
      ],
      "stateMutability": "payable",
      "type": "function",
      "payable": true
    },
    {
      "inputs": [
        {
          "internalType": "uint256",
          "name": "lotteryTokensAmountToEnter",
          "type": "uint256"
        }
      ],
      "name": "enterLottery",
      "outputs": [],
      "stateMutability": "nonpayable",
      "type": "function"
    },
    {
      "inputs": [],
      "name": "getRandomNumber",
      "outputs": [
        {
          "internalType": "uint256",
          "name": "",
          "type": "uint256"
        }
      ],
      "stateMutability": "view",
      "type": "function",
      "constant": true
    },
    {
      "inputs": [],
      "name": "pickWinner",
      "outputs": [],
      "stateMutability": "nonpayable",
      "type": "function"
    }
  ],
  "bytecode": "0x60806040523480156200001157600080fd5b50604051620023b7380380620023b7833981810160405281019062000037919062000202565b620000576200004b620000cc60201b60201c565b620000d460201b60201c565b80600460006101000a81548173ffffffffffffffffffffffffffffffffffffffff021916908373ffffffffffffffffffffffffffffffffffffffff16021790555060008060146101000a81548160ff02191690836002811115620000c057620000bf62000234565b5b02179055505062000263565b600033905090565b60008060009054906101000a900473ffffffffffffffffffffffffffffffffffffffff169050816000806101000a81548173ffffffffffffffffffffffffffffffffffffffff021916908373ffffffffffffffffffffffffffffffffffffffff1602179055508173ffffffffffffffffffffffffffffffffffffffff168173ffffffffffffffffffffffffffffffffffffffff167f8be0079c531659141344cd1fd0a4f28419497f9722a3daafe3b4186f6b6457e060405160405180910390a35050565b600080fd5b600073ffffffffffffffffffffffffffffffffffffffff82169050919050565b6000620001ca826200019d565b9050919050565b620001dc81620001bd565b8114620001e857600080fd5b50565b600081519050620001fc81620001d1565b92915050565b6000602082840312156200021b576200021a62000198565b5b60006200022b84828501620001eb565b91505092915050565b7f4e487b7100000000000000000000000000000000000000000000000000000000600052602160045260246000fd5b61214480620002736000396000f3fe6080604052600436106100f35760003560e01c80638da5cb5b1161008a578063e2eb41ff11610059578063e2eb41ff146102b0578063f2fde38b146102ee578063fc0c546a14610317578063fe18818414610342576100f3565b80638da5cb5b146102185780639dfecdcc14610243578063b0b9603b1461025a578063dbdff2c114610285576100f3565b80635d495aea116100c65780635d495aea146101a85780636fd09816146101bf578063715018a6146101d657806381447999146101ed576100f3565b80633fd43098146100f8578063472016da1461012157806348db5f891461015e578063589281f41461018a575b600080fd5b34801561010457600080fd5b5061011f600480360381019061011a91906114b0565b61036d565b005b34801561012d57600080fd5b50610148600480360381019061014391906114b0565b610692565b604051610155919061151e565b60405180910390f35b34801561016a57600080fd5b506101736106d1565b604051610181929190611569565b60405180910390f35b610192610703565b60405161019f9190611592565b60405180910390f35b3480156101b457600080fd5b506101bd610a0e565b005b3480156101cb57600080fd5b506101d4610be6565b005b3480156101e257600080fd5b506101eb610cf1565b005b3480156101f957600080fd5b50610202610d05565b60405161020f9190611624565b60405180910390f35b34801561022457600080fd5b5061022d610d18565b60405161023a919061163f565b60405180910390f35b34801561024f57600080fd5b50610258610d41565b005b34801561026657600080fd5b5061026f610deb565b60405161027c919061163f565b60405180910390f35b34801561029157600080fd5b5061029a610e11565b6040516102a79190611592565b60405180910390f35b3480156102bc57600080fd5b506102d760048036038101906102d29190611686565b610e4c565b6040516102e5929190611569565b60405180910390f35b3480156102fa57600080fd5b5061031560048036038101906103109190611686565b610e90565b005b34801561032357600080fd5b5061032c610f13565b6040516103399190611712565b60405180910390f35b34801561034e57600080fd5b50610357610f39565b604051610364919061163f565b60405180910390f35b60006002811115610381576103806115ad565b5b600060149054906101000a900460ff1660028111156103a3576103a26115ad565b5b146103e3576040517f08c379a00000000000000000000000000000000000000000000000000000000081526004016103da9061178a565b60405180910390fd5b6000600460009054906101000a900473ffffffffffffffffffffffffffffffffffffffff1673ffffffffffffffffffffffffffffffffffffffff166370a08231336040518263ffffffff1660e01b8152600401610440919061163f565b602060405180830381865afa15801561045d573d6000803e3d6000fd5b505050506040513d601f19601f8201168201806040525081019061048191906117bf565b905060008110156104c7576040517f08c379a00000000000000000000000000000000000000000000000000000000081526004016104be90611884565b60405180910390fd5b606482101561050b576040517f08c379a000000000000000000000000000000000000000000000000000000000815260040161050290611916565b60405180910390fd5b600460009054906101000a900473ffffffffffffffffffffffffffffffffffffffff1673ffffffffffffffffffffffffffffffffffffffff166323b872dd3330856040518463ffffffff1660e01b815260040161056a93929190611936565b6020604051808303816000875af1158015610589573d6000803e3d6000fd5b505050506040513d601f19601f820116820180604052508101906105ad91906119a5565b506000600760003373ffffffffffffffffffffffffffffffffffffffff1673ffffffffffffffffffffffffffffffffffffffff168152602001908152602001600020600101541115610608576106033383610f5f565b610613565b61061233836110e7565b5b7f4e3358e5bdb38f499a83fbcd33d16343569f3b6fe53021022dede6364017b4a833600760003373ffffffffffffffffffffffffffffffffffffffff1673ffffffffffffffffffffffffffffffffffffffff16815260200190815260200160002060010154604051610686929190611a1e565b60405180910390a15050565b600181815481106106a257600080fd5b906000526020600020016000915054906101000a900473ffffffffffffffffffffffffffffffffffffffff1681565b60058060000160009054906101000a900473ffffffffffffffffffffffffffffffffffffffff16908060010154905082565b6000806002811115610718576107176115ad565b5b600060149054906101000a900460ff16600281111561073a576107396115ad565b5b1461077a576040517f08c379a00000000000000000000000000000000000000000000000000000000081526004016107719061178a565b60405180910390fd5b67016345785d8a000034146107c4576040517f08c379a00000000000000000000000000000000000000000000000000000000081526004016107bb90611acc565b60405180910390fd5b6000606490507f4e3358e5bdb38f499a83fbcd33d16343569f3b6fe53021022dede6364017b4a833826040516107fb929190611b38565b60405180910390a16000600460009054906101000a900473ffffffffffffffffffffffffffffffffffffffff1673ffffffffffffffffffffffffffffffffffffffff166370a08231306040518263ffffffff1660e01b8152600401610860919061163f565b602060405180830381865afa15801561087d573d6000803e3d6000fd5b505050506040513d601f19601f820116820180604052508101906108a191906117bf565b9050818110156108e6576040517f08c379a00000000000000000000000000000000000000000000000000000000081526004016108dd90611be6565b60405180910390fd5b6000600460009054906101000a900473ffffffffffffffffffffffffffffffffffffffff1673ffffffffffffffffffffffffffffffffffffffff1663a9059cbb33856040518363ffffffff1660e01b8152600401610945929190611569565b6020604051808303816000875af1158015610964573d6000803e3d6000fd5b505050506040513d601f19601f8201168201806040525081019061098891906119a5565b9050806109ca576040517f08c379a00000000000000000000000000000000000000000000000000000000081526004016109c190611c52565b60405180910390fd5b7f0a37b72bb67eee30e09084cf386f8a17817c57f620c3ab95fb25d6a20356ec773334856040516109fd93929190611c72565b60405180910390a182935050505090565b60006002811115610a2257610a216115ad565b5b600060149054906101000a900460ff166002811115610a4457610a436115ad565b5b14610a84576040517f08c379a0000000000000000000000000000000000000000000000000000000008152600401610a7b9061178a565b60405180910390fd5b610a8c611284565b6001808080549050610a9e9190611cd8565b81548110610aaf57610aae611d0c565b5b9060005260206000200160009054906101000a900473ffffffffffffffffffffffffffffffffffffffff16600260006101000a81548173ffffffffffffffffffffffffffffffffffffffff021916908373ffffffffffffffffffffffffffffffffffffffff1602179055506000479050600260009054906101000a900473ffffffffffffffffffffffffffffffffffffffff1673ffffffffffffffffffffffffffffffffffffffff166108fc479081150290604051600060405180830381858888f19350505050158015610b87573d6000803e3d6000fd5b507f3cf1af53e79884a92609ce59db1ec9f584d88e2d14c8eaba43a21db81318301e600260009054906101000a900473ffffffffffffffffffffffffffffffffffffffff1682604051610bdb929190611569565b60405180910390a150565b610bee611284565b60016002811115610c0257610c016115ad565b5b600060149054906101000a900460ff166002811115610c2457610c236115ad565b5b03610c64576040517f08c379a0000000000000000000000000000000000000000000000000000000008152600401610c5b90611d87565b60405180910390fd5b600067ffffffffffffffff811115610c7f57610c7e611da7565b5b604051908082528060200260200182016040528015610cad5781602001602082028036833780820191505090505b5060019080519060200190610cc39291906113ce565b506001600060146101000a81548160ff02191690836002811115610cea57610ce96115ad565b5b0217905550565b610cf9611284565b610d036000611302565b565b600060149054906101000a900460ff1681565b60008060009054906101000a900473ffffffffffffffffffffffffffffffffffffffff16905090565b610d49611284565b60016002811115610d5d57610d5c6115ad565b5b600060149054906101000a900460ff166002811115610d7f57610d7e6115ad565b5b14610dbf576040517f08c379a0000000000000000000000000000000000000000000000000000000008152600401610db690611e22565b60405180910390fd5b60008060146101000a81548160ff02191690836002811115610de457610de36115ad565b5b0217905550565b600360009054906101000a900473ffffffffffffffffffffffffffffffffffffffff1681565b60008044426001604051602001610e2a93929190611f81565b6040516020818303038152906040528051906020012060001c90508091505090565b60076020528060005260406000206000915090508060000160009054906101000a900473ffffffffffffffffffffffffffffffffffffffff16908060010154905082565b610e98611284565b600073ffffffffffffffffffffffffffffffffffffffff168173ffffffffffffffffffffffffffffffffffffffff1603610f07576040517f08c379a0000000000000000000000000000000000000000000000000000000008152600401610efe9061202c565b60405180910390fd5b610f1081611302565b50565b600460009054906101000a900473ffffffffffffffffffffffffffffffffffffffff1681565b600260009054906101000a900473ffffffffffffffffffffffffffffffffffffffff1681565b600760008373ffffffffffffffffffffffffffffffffffffffff1673ffffffffffffffffffffffffffffffffffffffff16815260200190815260200160002060056000820160009054906101000a900473ffffffffffffffffffffffffffffffffffffffff168160000160006101000a81548173ffffffffffffffffffffffffffffffffffffffff021916908373ffffffffffffffffffffffffffffffffffffffff1602179055506001820154816001015590505080600560010154611025919061204c565b6005600101819055506005600760008473ffffffffffffffffffffffffffffffffffffffff1673ffffffffffffffffffffffffffffffffffffffff1681526020019081526020016000206000820160009054906101000a900473ffffffffffffffffffffffffffffffffffffffff168160000160006101000a81548173ffffffffffffffffffffffffffffffffffffffff021916908373ffffffffffffffffffffffffffffffffffffffff160217905550600182015481600101559050505050565b6001829080600181540180825580915050600190039060005260206000200160009091909190916101000a81548173ffffffffffffffffffffffffffffffffffffffff021916908373ffffffffffffffffffffffffffffffffffffffff16021790555060405180604001604052808373ffffffffffffffffffffffffffffffffffffffff16815260200182815250600560008201518160000160006101000a81548173ffffffffffffffffffffffffffffffffffffffff021916908373ffffffffffffffffffffffffffffffffffffffff160217905550602082015181600101559050506005600760008473ffffffffffffffffffffffffffffffffffffffff1673ffffffffffffffffffffffffffffffffffffffff1681526020019081526020016000206000820160009054906101000a900473ffffffffffffffffffffffffffffffffffffffff168160000160006101000a81548173ffffffffffffffffffffffffffffffffffffffff021916908373ffffffffffffffffffffffffffffffffffffffff160217905550600182015481600101559050505050565b61128c6113c6565b73ffffffffffffffffffffffffffffffffffffffff166112aa610d18565b73ffffffffffffffffffffffffffffffffffffffff1614611300576040517f08c379a00000000000000000000000000000000000000000000000000000000081526004016112f7906120ee565b60405180910390fd5b565b60008060009054906101000a900473ffffffffffffffffffffffffffffffffffffffff169050816000806101000a81548173ffffffffffffffffffffffffffffffffffffffff021916908373ffffffffffffffffffffffffffffffffffffffff1602179055508173ffffffffffffffffffffffffffffffffffffffff168173ffffffffffffffffffffffffffffffffffffffff167f8be0079c531659141344cd1fd0a4f28419497f9722a3daafe3b4186f6b6457e060405160405180910390a35050565b600033905090565b828054828255906000526020600020908101928215611447579160200282015b828111156114465782518260006101000a81548173ffffffffffffffffffffffffffffffffffffffff021916908373ffffffffffffffffffffffffffffffffffffffff160217905550916020019190600101906113ee565b5b5090506114549190611458565b5090565b5b80821115611471576000816000905550600101611459565b5090565b600080fd5b6000819050919050565b61148d8161147a565b811461149857600080fd5b50565b6000813590506114aa81611484565b92915050565b6000602082840312156114c6576114c5611475565b5b60006114d48482850161149b565b91505092915050565b600073ffffffffffffffffffffffffffffffffffffffff82169050919050565b6000611508826114dd565b9050919050565b611518816114fd565b82525050565b6000602082019050611533600083018461150f565b92915050565b6000611544826114dd565b9050919050565b61155481611539565b82525050565b6115638161147a565b82525050565b600060408201905061157e600083018561154b565b61158b602083018461155a565b9392505050565b60006020820190506115a7600083018461155a565b92915050565b7f4e487b7100000000000000000000000000000000000000000000000000000000600052602160045260246000fd5b600381106115ed576115ec6115ad565b5b50565b60008190506115fe826115dc565b919050565b600061160e826115f0565b9050919050565b61161e81611603565b82525050565b60006020820190506116396000830184611615565b92915050565b6000602082019050611654600083018461154b565b92915050565b61166381611539565b811461166e57600080fd5b50565b6000813590506116808161165a565b92915050565b60006020828403121561169c5761169b611475565b5b60006116aa84828501611671565b91505092915050565b6000819050919050565b60006116d86116d36116ce846114dd565b6116b3565b6114dd565b9050919050565b60006116ea826116bd565b9050919050565b60006116fc826116df565b9050919050565b61170c816116f1565b82525050565b60006020820190506117276000830184611703565b92915050565b600082825260208201905092915050565b7f4c6f7474657279204953206e6f74206f70656e00000000000000000000000000600082015250565b600061177460138361172d565b915061177f8261173e565b602082019050919050565b600060208201905081810360008301526117a381611767565b9050919050565b6000815190506117b981611484565b92915050565b6000602082840312156117d5576117d4611475565b5b60006117e3848285016117aa565b91505092915050565b7f596f75206e65656420746f20617070726f7665206c6f7474657279546f6b656e60008201527f732066726f6d20746865206c6f747465727920636f6e7472616374206669727360208201527f7400000000000000000000000000000000000000000000000000000000000000604082015250565b600061186e60418361172d565b9150611879826117ec565b606082019050919050565b6000602082019050818103600083015261189d81611861565b9050919050565b7f4d696e696d756d20313030204c6f7474657279546f6b656e7320746f20656e7460008201527f6572000000000000000000000000000000000000000000000000000000000000602082015250565b600061190060228361172d565b915061190b826118a4565b604082019050919050565b6000602082019050818103600083015261192f816118f3565b9050919050565b600060608201905061194b600083018661154b565b611958602083018561154b565b611965604083018461155a565b949350505050565b60008115159050919050565b6119828161196d565b811461198d57600080fd5b50565b60008151905061199f81611979565b92915050565b6000602082840312156119bb576119ba611475565b5b60006119c984828501611990565b91505092915050565b7f4c6f747465727920456e74657265640000000000000000000000000000000000600082015250565b6000611a08600f8361172d565b9150611a13826119d2565b602082019050919050565b6000606082019050611a33600083018561154b565b611a40602083018461155a565b8181036040830152611a51816119fb565b90509392505050565b7f53656e64206f6e6c7920302e312045544820746f206275792031303020746f6b60008201527f656e730000000000000000000000000000000000000000000000000000000000602082015250565b6000611ab660238361172d565b9150611ac182611a5a565b604082019050919050565b60006020820190508181036000830152611ae581611aa9565b9050919050565b7f426f7567687420746f6b656e7300000000000000000000000000000000000000600082015250565b6000611b22600d8361172d565b9150611b2d82611aec565b602082019050919050565b6000606082019050611b4d600083018561154b565b611b5a602083018461155a565b8181036040830152611b6b81611b15565b90509392505050565b7f56656e646f7220636f6e747261637420686173206e6f7420656e6f756768207460008201527f6f6b656e7320696e206974732062616c616e6365000000000000000000000000602082015250565b6000611bd060348361172d565b9150611bdb82611b74565b604082019050919050565b60006020820190508181036000830152611bff81611bc3565b9050919050565b7f4661696c656420746f207472616e7366657220746f6b656e20746f2075736572600082015250565b6000611c3c60208361172d565b9150611c4782611c06565b602082019050919050565b60006020820190508181036000830152611c6b81611c2f565b9050919050565b6000606082019050611c87600083018661154b565b611c94602083018561155a565b611ca1604083018461155a565b949350505050565b7f4e487b7100000000000000000000000000000000000000000000000000000000600052601160045260246000fd5b6000611ce38261147a565b9150611cee8361147a565b925082821015611d0157611d00611ca9565b5b828203905092915050565b7f4e487b7100000000000000000000000000000000000000000000000000000000600052603260045260246000fd5b7f4c6f747465727920616c726561647920636c6f73656400000000000000000000600082015250565b6000611d7160168361172d565b9150611d7c82611d3b565b602082019050919050565b60006020820190508181036000830152611da081611d64565b9050919050565b7f4e487b7100000000000000000000000000000000000000000000000000000000600052604160045260246000fd5b7f4c6f747465727920616c7265616479206f70656e000000000000000000000000600082015250565b6000611e0c60148361172d565b9150611e1782611dd6565b602082019050919050565b60006020820190508181036000830152611e3b81611dff565b9050919050565b6000819050919050565b611e5d611e588261147a565b611e42565b82525050565b600081549050919050565b600081905092915050565b60008190508160005260206000209050919050565b611e97816114fd565b82525050565b6000611ea98383611e8e565b60208301905092915050565b60008160001c9050919050565b600073ffffffffffffffffffffffffffffffffffffffff82169050919050565b6000611ef5611ef083611eb5565b611ec2565b9050919050565b6000611f088254611ee2565b9050919050565b6000600182019050919050565b6000611f2782611e63565b611f318185611e6e565b9350611f3c83611e79565b8060005b83811015611f7457611f5182611efc565b611f5b8882611e9d565b9750611f6683611f0f565b925050600181019050611f40565b5085935050505092915050565b6000611f8d8286611e4c565b602082019150611f9d8285611e4c565b602082019150611fad8284611f1c565b9150819050949350505050565b7f4f776e61626c653a206e6577206f776e657220697320746865207a65726f206160008201527f6464726573730000000000000000000000000000000000000000000000000000602082015250565b600061201660268361172d565b915061202182611fba565b604082019050919050565b6000602082019050818103600083015261204581612009565b9050919050565b60006120578261147a565b91506120628361147a565b9250827fffffffffffffffffffffffffffffffffffffffffffffffffffffffffffffffff0382111561209757612096611ca9565b5b828201905092915050565b7f4f776e61626c653a2063616c6c6572206973206e6f7420746865206f776e6572600082015250565b60006120d860208361172d565b91506120e3826120a2565b602082019050919050565b60006020820190508181036000830152612107816120cb565b905091905056fea26469706673582212201772db83139472edc6f791faf83a44e43bee72b1728315a6b563bbc75ca3611764736f6c634300080d0033",
  "immutableReferences": {},
  "source": "// SPDX-License-Identifier: GPL-3.0\n\npragma solidity >=0.4.22 <0.9.0;\n\nimport \"@openzeppelin/contracts/access/Ownable.sol\";\n\nimport \"./Events.sol\";\nimport \"./LotteryToken.sol\";\n\ncontract Lottery is Ownable, Events {\n    enum LOTTERY_STATE {\n        OPEN,\n        CLOSED,\n        CALCULATING_WINNER\n    }\n    LOTTERY_STATE public lottery_state;\n    uint256 private constant _PRIZE_FUND = 1000;\n    address payable[] public playersAddresses;\n    address public lastWinner;\n    address public saleTokens;\n\n    LotteryToken public token;\n\n    struct Player {\n        address addr;\n        uint256 totalEntered;\n    }\n\n    Player public player;\n    mapping(address => Player) public players;\n\n    constructor(address tokenAddress) {\n        token = LotteryToken(tokenAddress);\n        lottery_state = LOTTERY_STATE.OPEN;\n    }\n\n    modifier lotteryIsOpen() {\n        require(lottery_state == LOTTERY_STATE.OPEN, \"Lottery IS not open\");\n        _;\n    }\n\n    function setPLayer(address addr, uint256 amount) private {\n        playersAddresses.push(payable(addr));\n        player = Player(addr, amount);\n        players[addr] = player;\n    }\n\n    function updatePLayer(address addr, uint256 amount) private {\n        player = players[addr];\n        player.totalEntered = player.totalEntered + amount;\n        players[addr] = player;\n    }\n\n    function closeLottery() public onlyOwner {\n        require(\n            lottery_state != LOTTERY_STATE.CLOSED,\n            \"Lottery already closed\"\n        );\n        // reset dynamic memory array\n        playersAddresses = new address payable[](0);\n        lottery_state = LOTTERY_STATE.CLOSED;\n    }\n\n    function openLottery() public onlyOwner {\n        require(lottery_state == LOTTERY_STATE.CLOSED, \"Lottery already open\");\n        lottery_state = LOTTERY_STATE.OPEN;\n    }\n\n    function buyLotteryTokens()\n        external\n        payable\n        lotteryIsOpen\n        returns (uint256 tokenAmount)\n    {\n        // 0.1 ether == \"100000000000000000\"\n        require(msg.value == 0.1 ether, \"Send only 0.1 ETH to buy 100 tokens\");\n\n        // Can only buy 100 at a time.\n        uint256 amountToBuy = 100;\n\n        emit Log(msg.sender, amountToBuy, \"Bought tokens\");\n        // basically this on cmd lotteryToken.balanceOf(lottery.address)\n        uint256 lotteryTokenBalance = token.balanceOf(address(this));\n        require(\n            lotteryTokenBalance >= amountToBuy,\n            \"Vendor contract has not enough tokens in its balance\"\n        );\n\n        // Contract A calls Contract B\n        // _transfer(lotteryContract, account[1], amountToBuy);\n        // msg.sender is different from msg.sender in the erc20 as its the lotteryContract in erc20\n        bool sent = token.transfer(msg.sender, amountToBuy);\n        require(sent, \"Failed to transfer token to user\");\n\n        emit BuyTokens(msg.sender, msg.value, amountToBuy);\n\n        return amountToBuy;\n    }\n\n    function enterLottery(uint256 lotteryTokensAmountToEnter)\n        external\n        lotteryIsOpen\n    {\n        uint256 playerBalance = token.balanceOf(msg.sender);\n        require(\n            playerBalance >= 0,\n            \"You need to approve lotteryTokens from the lottery contract first\"\n        );\n        require(\n            lotteryTokensAmountToEnter >= 100,\n            \"Minimum 100 LotteryTokens to enter\"\n        );\n\n        // does not work\n        // token.approve(address(this), amountToEnter)\n        // because Lottery calls LotteryToken and msg.sender becomes Lottery in LotteryToken.approve\n        // not the msg.sender of the call to enterLottery()\n        // Contract A calls Contract B\n\n        // so bought them and then send back to enter the lottery.\n        token.transferFrom(\n            msg.sender,\n            address(this),\n            lotteryTokensAmountToEnter\n        );\n\n        if (players[msg.sender].totalEntered > 0) {\n            updatePLayer(msg.sender, lotteryTokensAmountToEnter);\n        } else {\n            // new player\n            setPLayer(msg.sender, lotteryTokensAmountToEnter);\n        }\n\n        emit Log(\n            msg.sender,\n            players[msg.sender].totalEntered,\n            \"Lottery Entered\"\n        );\n    }\n\n    function getRandomNumber() public view returns (uint256) {\n        uint256 rnd = uint256(\n            keccak256(\n                abi.encodePacked(\n                    block.difficulty,\n                    block.timestamp,\n                    playersAddresses\n                )\n            )\n        );\n\n        return rnd;\n    }\n\n    function pickWinner() public lotteryIsOpen onlyOwner {\n        //lottery_state = LOTTERY_STATE.CALCULATING_WINNER;\n\n        // TODO with getRandomNumber()\n        lastWinner = playersAddresses[playersAddresses.length - 1];\n        uint256 winnings = address(this).balance;\n\n        //closeLottery();\n\n        payable(lastWinner).transfer(address(this).balance);\n\n        emit WinnerDeclared(lastWinner, winnings);\n    }\n\n    //    function isParticipate(address _participant) private view returns (bool) {\n    //        for (uint256 i = 0; i < players.length; i++) {\n    //            if (players[i] == _participant) {\n    //                return true;\n    //            }\n    //        }\n    //        return false;\n    //    }\n}\n\n// cmds\n\n// const lottery  = await Lottery.deployed()\n// const lotteryToken  = await LotteryToken.deployed()\n\n// web3.eth.getBalance(lottery.address);  // no eth\n// lotteryToken.balanceOf(lottery.address) // gives lottery quota 1000000\n\n// await lotteryToken.totalSupply() // gives max coins 2500000\n\n// lotteryToken.balanceOf(accounts[1])  0\n\n// lottery.buyLotteryTokens({ from:accounts[1], value:\"100000000000000000\"})\n\n// must approve from the token first.\n// lotteryToken.allowance(accounts[1], lottery.address) // 0\n// lotteryToken.approve(lottery.address, \"100\", { from:accounts[1] }); // owner => (spender => amount)\n// lotteryToken.allowance(accounts[1], lottery.address) // 100\n\n// Now enter and use the transferFrom\n// const res = await lottery.enterLottery(\"100\", { from:accounts[1] })\n\n// lottery.playersEnteredBalance[accounts[1]]\n\n// lottery.pickWinner()\n\n// Other\n// res.logs[1].args.amount\n\n// fromWei converts any wei value into a ether value.\n// const amountToBuy =  web3.utils.fromWei(\"100000000000000000\")\n\n// LotteryToken.allowance(accounts[1], Lottery.address)\n",
  "sourcePath": "/Users/zak/Dropbox/Code/dapps/lottery/contracts/Lottery.sol",
  "compiler": {
    "name": "solc",
    "version": "0.8.13+commit.abaa5c0e.Emscripten.clang"
  },
  "schemaVersion": "3.4.11",
  "updatedAt": "2022-12-23T11:57:34.809Z",
  "networkType": "ethereum",
  "devdoc": {
    "kind": "dev",
    "methods": {
      "owner()": {
        "details": "Returns the address of the current owner."
      },
      "renounceOwnership()": {
        "details": "Leaves the contract without owner. It will not be possible to call `onlyOwner` functions anymore. Can only be called by the current owner. NOTE: Renouncing ownership will leave the contract without an owner, thereby removing any functionality that is only available to the owner."
      },
      "transferOwnership(address)": {
        "details": "Transfers ownership of the contract to a new account (`newOwner`). Can only be called by the current owner."
      }
    },
    "version": 1
  },
  "userdoc": {
    "kind": "user",
    "methods": {},
    "version": 1
  }
}