{
  "contractName": "Lottery",
  "abi": [
    {
      "inputs": [
        {
          "internalType": "address",
          "name": "tokenAddress",
          "type": "address"
        }
      ],
      "stateMutability": "nonpayable",
      "type": "constructor"
    },
    {
      "anonymous": false,
      "inputs": [
        {
          "indexed": false,
          "internalType": "address",
          "name": "buyer",
          "type": "address"
        },
        {
          "indexed": false,
          "internalType": "uint256",
          "name": "amountOfETH",
          "type": "uint256"
        },
        {
          "indexed": false,
          "internalType": "uint256",
          "name": "amountOfTokens",
          "type": "uint256"
        }
      ],
      "name": "BuyTokens",
      "type": "event"
    },
    {
      "anonymous": false,
      "inputs": [
        {
          "indexed": false,
          "internalType": "address",
          "name": "addr",
          "type": "address"
        },
        {
          "indexed": false,
          "internalType": "uint256",
          "name": "amount",
          "type": "uint256"
        },
        {
          "indexed": false,
          "internalType": "string",
          "name": "msg",
          "type": "string"
        }
      ],
      "name": "Log",
      "type": "event"
    },
    {
      "anonymous": false,
      "inputs": [
        {
          "indexed": true,
          "internalType": "address",
          "name": "previousOwner",
          "type": "address"
        },
        {
          "indexed": true,
          "internalType": "address",
          "name": "newOwner",
          "type": "address"
        }
      ],
      "name": "OwnershipTransferred",
      "type": "event"
    },
    {
      "anonymous": false,
      "inputs": [
        {
          "indexed": false,
          "internalType": "address",
          "name": "buyer",
          "type": "address"
        },
        {
          "indexed": false,
          "internalType": "uint256",
          "name": "amountOfETH",
          "type": "uint256"
        },
        {
          "indexed": false,
          "internalType": "uint256",
          "name": "amountOfTokens",
          "type": "uint256"
        }
      ],
      "name": "SoldTokens",
      "type": "event"
    },
    {
      "anonymous": false,
      "inputs": [
        {
          "indexed": false,
          "internalType": "address",
          "name": "winner",
          "type": "address"
        },
        {
          "indexed": false,
          "internalType": "uint256",
          "name": "winnings",
          "type": "uint256"
        }
      ],
      "name": "WinnerDeclared",
      "type": "event"
    },
    {
      "inputs": [],
      "name": "lastWinner",
      "outputs": [
        {
          "internalType": "address",
          "name": "",
          "type": "address"
        }
      ],
      "stateMutability": "view",
      "type": "function",
      "constant": true
    },
    {
      "inputs": [],
      "name": "lottery_state",
      "outputs": [
        {
          "internalType": "enum Lottery.LOTTERY_STATE",
          "name": "",
          "type": "uint8"
        }
      ],
      "stateMutability": "view",
      "type": "function",
      "constant": true
    },
    {
      "inputs": [],
      "name": "owner",
      "outputs": [
        {
          "internalType": "address",
          "name": "",
          "type": "address"
        }
      ],
      "stateMutability": "view",
      "type": "function",
      "constant": true
    },
    {
      "inputs": [
        {
          "internalType": "uint256",
          "name": "",
          "type": "uint256"
        }
      ],
      "name": "players",
      "outputs": [
        {
          "internalType": "address payable",
          "name": "",
          "type": "address"
        }
      ],
      "stateMutability": "view",
      "type": "function",
      "constant": true
    },
    {
      "inputs": [],
      "name": "renounceOwnership",
      "outputs": [],
      "stateMutability": "nonpayable",
      "type": "function"
    },
    {
      "inputs": [],
      "name": "saleTokens",
      "outputs": [
        {
          "internalType": "address",
          "name": "",
          "type": "address"
        }
      ],
      "stateMutability": "view",
      "type": "function",
      "constant": true
    },
    {
      "inputs": [],
      "name": "token",
      "outputs": [
        {
          "internalType": "contract LotteryToken",
          "name": "",
          "type": "address"
        }
      ],
      "stateMutability": "view",
      "type": "function",
      "constant": true
    },
    {
      "inputs": [
        {
          "internalType": "address",
          "name": "newOwner",
          "type": "address"
        }
      ],
      "name": "transferOwnership",
      "outputs": [],
      "stateMutability": "nonpayable",
      "type": "function"
    },
    {
      "inputs": [],
      "name": "closeLottery",
      "outputs": [],
      "stateMutability": "nonpayable",
      "type": "function"
    },
    {
      "inputs": [],
      "name": "openLottery",
      "outputs": [],
      "stateMutability": "nonpayable",
      "type": "function"
    },
    {
      "inputs": [],
      "name": "buyLotteryTokens",
      "outputs": [
        {
          "internalType": "uint256",
          "name": "tokenAmount",
          "type": "uint256"
        }
      ],
      "stateMutability": "payable",
      "type": "function",
      "payable": true
    },
    {
      "inputs": [
        {
          "internalType": "uint256",
          "name": "lotteryTokensAmountToEnter",
          "type": "uint256"
        }
      ],
      "name": "enterLottery",
      "outputs": [],
      "stateMutability": "nonpayable",
      "type": "function"
    },
    {
      "inputs": [],
      "name": "getRandomNumber",
      "outputs": [
        {
          "internalType": "uint256",
          "name": "",
          "type": "uint256"
        }
      ],
      "stateMutability": "view",
      "type": "function",
      "constant": true
    },
    {
      "inputs": [],
      "name": "pickWinner",
      "outputs": [],
      "stateMutability": "nonpayable",
      "type": "function"
    }
  ],
  "bytecode": "0x60806040523480156200001157600080fd5b506040516200202838038062002028833981810160405281019062000037919062000202565b620000576200004b620000cc60201b60201c565b620000d460201b60201c565b80600560006101000a81548173ffffffffffffffffffffffffffffffffffffffff021916908373ffffffffffffffffffffffffffffffffffffffff16021790555060008060146101000a81548160ff02191690836002811115620000c057620000bf62000234565b5b02179055505062000263565b600033905090565b60008060009054906101000a900473ffffffffffffffffffffffffffffffffffffffff169050816000806101000a81548173ffffffffffffffffffffffffffffffffffffffff021916908373ffffffffffffffffffffffffffffffffffffffff1602179055508173ffffffffffffffffffffffffffffffffffffffff168173ffffffffffffffffffffffffffffffffffffffff167f8be0079c531659141344cd1fd0a4f28419497f9722a3daafe3b4186f6b6457e060405160405180910390a35050565b600080fd5b600073ffffffffffffffffffffffffffffffffffffffff82169050919050565b6000620001ca826200019d565b9050919050565b620001dc81620001bd565b8114620001e857600080fd5b50565b600081519050620001fc81620001d1565b92915050565b6000602082840312156200021b576200021a62000198565b5b60006200022b84828501620001eb565b91505092915050565b7f4e487b7100000000000000000000000000000000000000000000000000000000600052602160045260246000fd5b611db580620002736000396000f3fe6080604052600436106100dd5760003560e01c80639dfecdcc1161007f578063f2fde38b11610059578063f2fde38b14610231578063f71d96cb1461025a578063fc0c546a14610297578063fe188184146102c2576100dd565b80639dfecdcc146101c4578063b0b9603b146101db578063dbdff2c114610206576100dd565b80636fd09816116100bb5780636fd0981614610140578063715018a614610157578063814479991461016e5780638da5cb5b14610199576100dd565b80633fd43098146100e2578063589281f41461010b5780635d495aea14610129575b600080fd5b3480156100ee57600080fd5b50610109600480360381019061010491906111b4565b6102ed565b005b61011361059c565b60405161012091906111f0565b60405180910390f35b34801561013557600080fd5b5061013e610875565b005b34801561014c57600080fd5b50610155610ac2565b005b34801561016357600080fd5b5061016c610c41565b005b34801561017a57600080fd5b50610183610cc9565b6040516101909190611282565b60405180910390f35b3480156101a557600080fd5b506101ae610cdc565b6040516101bb91906112de565b60405180910390f35b3480156101d057600080fd5b506101d9610d05565b005b3480156101e757600080fd5b506101f0610e23565b6040516101fd91906112de565b60405180910390f35b34801561021257600080fd5b5061021b610e49565b60405161022891906111f0565b60405180910390f35b34801561023d57600080fd5b5061025860048036038101906102539190611325565b610e84565b005b34801561026657600080fd5b50610281600480360381019061027c91906111b4565b610f7b565b60405161028e9190611373565b60405180910390f35b3480156102a357600080fd5b506102ac610fba565b6040516102b991906113ed565b60405180910390f35b3480156102ce57600080fd5b506102d7610fe0565b6040516102e491906112de565b60405180910390f35b600060028111156103015761030061120b565b5b600060149054906101000a900460ff1660028111156103235761032261120b565b5b1461033157610330611408565b5b6000600560009054906101000a900473ffffffffffffffffffffffffffffffffffffffff1673ffffffffffffffffffffffffffffffffffffffff166370a08231336040518263ffffffff1660e01b815260040161038e91906112de565b602060405180830381865afa1580156103ab573d6000803e3d6000fd5b505050506040513d601f19601f820116820180604052508101906103cf919061144c565b90506000811015610415576040517f08c379a000000000000000000000000000000000000000000000000000000000815260040161040c90611522565b60405180910390fd5b6064821015610459576040517f08c379a0000000000000000000000000000000000000000000000000000000008152600401610450906115b4565b60405180910390fd5b600560009054906101000a900473ffffffffffffffffffffffffffffffffffffffff1673ffffffffffffffffffffffffffffffffffffffff166323b872dd3330856040518463ffffffff1660e01b81526004016104b8939291906115d4565b6020604051808303816000875af11580156104d7573d6000803e3d6000fd5b505050506040513d601f19601f820116820180604052508101906104fb9190611643565b506001339080600181540180825580915050600190039060005260206000200160009091909190916101000a81548173ffffffffffffffffffffffffffffffffffffffff021916908373ffffffffffffffffffffffffffffffffffffffff1602179055507f4e3358e5bdb38f499a83fbcd33d16343569f3b6fe53021022dede6364017b4a833836040516105909291906116bc565b60405180910390a15050565b60008060028111156105b1576105b061120b565b5b600060149054906101000a900460ff1660028111156105d3576105d261120b565b5b146105e1576105e0611408565b5b67016345785d8a0000341461062b576040517f08c379a00000000000000000000000000000000000000000000000000000000081526004016106229061176a565b60405180910390fd5b6000606490507f4e3358e5bdb38f499a83fbcd33d16343569f3b6fe53021022dede6364017b4a833826040516106629291906117d6565b60405180910390a16000600560009054906101000a900473ffffffffffffffffffffffffffffffffffffffff1673ffffffffffffffffffffffffffffffffffffffff166370a08231306040518263ffffffff1660e01b81526004016106c791906112de565b602060405180830381865afa1580156106e4573d6000803e3d6000fd5b505050506040513d601f19601f82011682018060405250810190610708919061144c565b90508181101561074d576040517f08c379a000000000000000000000000000000000000000000000000000000000815260040161074490611884565b60405180910390fd5b6000600560009054906101000a900473ffffffffffffffffffffffffffffffffffffffff1673ffffffffffffffffffffffffffffffffffffffff1663a9059cbb33856040518363ffffffff1660e01b81526004016107ac9291906118a4565b6020604051808303816000875af11580156107cb573d6000803e3d6000fd5b505050506040513d601f19601f820116820180604052508101906107ef9190611643565b905080610831576040517f08c379a000000000000000000000000000000000000000000000000000000000815260040161082890611919565b60405180910390fd5b7f0a37b72bb67eee30e09084cf386f8a17817c57f620c3ab95fb25d6a20356ec7733348560405161086493929190611939565b60405180910390a182935050505090565b600060028111156108895761088861120b565b5b600060149054906101000a900460ff1660028111156108ab576108aa61120b565b5b146108b9576108b8611408565b5b6108c1611006565b73ffffffffffffffffffffffffffffffffffffffff166108df610cdc565b73ffffffffffffffffffffffffffffffffffffffff1614610935576040517f08c379a000000000000000000000000000000000000000000000000000000000815260040161092c906119bc565b60405180910390fd5b6002600060146101000a81548160ff0219169083600281111561095b5761095a61120b565b5b021790555060018080805490506109729190611a0b565b8154811061098357610982611a3f565b5b9060005260206000200160009054906101000a900473ffffffffffffffffffffffffffffffffffffffff16600360006101000a81548173ffffffffffffffffffffffffffffffffffffffff021916908373ffffffffffffffffffffffffffffffffffffffff16021790555060004790506109fb610ac2565b600360009054906101000a900473ffffffffffffffffffffffffffffffffffffffff1673ffffffffffffffffffffffffffffffffffffffff166108fc479081150290604051600060405180830381858888f19350505050158015610a63573d6000803e3d6000fd5b507f3cf1af53e79884a92609ce59db1ec9f584d88e2d14c8eaba43a21db81318301e600360009054906101000a900473ffffffffffffffffffffffffffffffffffffffff1682604051610ab79291906118a4565b60405180910390a150565b610aca611006565b73ffffffffffffffffffffffffffffffffffffffff16610ae8610cdc565b73ffffffffffffffffffffffffffffffffffffffff1614610b3e576040517f08c379a0000000000000000000000000000000000000000000000000000000008152600401610b35906119bc565b60405180910390fd5b60016002811115610b5257610b5161120b565b5b600060149054906101000a900460ff166002811115610b7457610b7361120b565b5b03610bb4576040517f08c379a0000000000000000000000000000000000000000000000000000000008152600401610bab90611aba565b60405180910390fd5b600067ffffffffffffffff811115610bcf57610bce611ada565b5b604051908082528060200260200182016040528015610bfd5781602001602082028036833780820191505090505b5060019080519060200190610c139291906110d2565b506001600060146101000a81548160ff02191690836002811115610c3a57610c3961120b565b5b0217905550565b610c49611006565b73ffffffffffffffffffffffffffffffffffffffff16610c67610cdc565b73ffffffffffffffffffffffffffffffffffffffff1614610cbd576040517f08c379a0000000000000000000000000000000000000000000000000000000008152600401610cb4906119bc565b60405180910390fd5b610cc7600061100e565b565b600060149054906101000a900460ff1681565b60008060009054906101000a900473ffffffffffffffffffffffffffffffffffffffff16905090565b610d0d611006565b73ffffffffffffffffffffffffffffffffffffffff16610d2b610cdc565b73ffffffffffffffffffffffffffffffffffffffff1614610d81576040517f08c379a0000000000000000000000000000000000000000000000000000000008152600401610d78906119bc565b60405180910390fd5b60016002811115610d9557610d9461120b565b5b600060149054906101000a900460ff166002811115610db757610db661120b565b5b14610df7576040517f08c379a0000000000000000000000000000000000000000000000000000000008152600401610dee90611b55565b60405180910390fd5b60008060146101000a81548160ff02191690836002811115610e1c57610e1b61120b565b5b0217905550565b600460009054906101000a900473ffffffffffffffffffffffffffffffffffffffff1681565b60008044426001604051602001610e6293929190611cb4565b6040516020818303038152906040528051906020012060001c90508091505090565b610e8c611006565b73ffffffffffffffffffffffffffffffffffffffff16610eaa610cdc565b73ffffffffffffffffffffffffffffffffffffffff1614610f00576040517f08c379a0000000000000000000000000000000000000000000000000000000008152600401610ef7906119bc565b60405180910390fd5b600073ffffffffffffffffffffffffffffffffffffffff168173ffffffffffffffffffffffffffffffffffffffff1603610f6f576040517f08c379a0000000000000000000000000000000000000000000000000000000008152600401610f6690611d5f565b60405180910390fd5b610f788161100e565b50565b60018181548110610f8b57600080fd5b906000526020600020016000915054906101000a900473ffffffffffffffffffffffffffffffffffffffff1681565b600560009054906101000a900473ffffffffffffffffffffffffffffffffffffffff1681565b600360009054906101000a900473ffffffffffffffffffffffffffffffffffffffff1681565b600033905090565b60008060009054906101000a900473ffffffffffffffffffffffffffffffffffffffff169050816000806101000a81548173ffffffffffffffffffffffffffffffffffffffff021916908373ffffffffffffffffffffffffffffffffffffffff1602179055508173ffffffffffffffffffffffffffffffffffffffff168173ffffffffffffffffffffffffffffffffffffffff167f8be0079c531659141344cd1fd0a4f28419497f9722a3daafe3b4186f6b6457e060405160405180910390a35050565b82805482825590600052602060002090810192821561114b579160200282015b8281111561114a5782518260006101000a81548173ffffffffffffffffffffffffffffffffffffffff021916908373ffffffffffffffffffffffffffffffffffffffff160217905550916020019190600101906110f2565b5b509050611158919061115c565b5090565b5b8082111561117557600081600090555060010161115d565b5090565b600080fd5b6000819050919050565b6111918161117e565b811461119c57600080fd5b50565b6000813590506111ae81611188565b92915050565b6000602082840312156111ca576111c9611179565b5b60006111d88482850161119f565b91505092915050565b6111ea8161117e565b82525050565b600060208201905061120560008301846111e1565b92915050565b7f4e487b7100000000000000000000000000000000000000000000000000000000600052602160045260246000fd5b6003811061124b5761124a61120b565b5b50565b600081905061125c8261123a565b919050565b600061126c8261124e565b9050919050565b61127c81611261565b82525050565b60006020820190506112976000830184611273565b92915050565b600073ffffffffffffffffffffffffffffffffffffffff82169050919050565b60006112c88261129d565b9050919050565b6112d8816112bd565b82525050565b60006020820190506112f360008301846112cf565b92915050565b611302816112bd565b811461130d57600080fd5b50565b60008135905061131f816112f9565b92915050565b60006020828403121561133b5761133a611179565b5b600061134984828501611310565b91505092915050565b600061135d8261129d565b9050919050565b61136d81611352565b82525050565b60006020820190506113886000830184611364565b92915050565b6000819050919050565b60006113b36113ae6113a98461129d565b61138e565b61129d565b9050919050565b60006113c582611398565b9050919050565b60006113d7826113ba565b9050919050565b6113e7816113cc565b82525050565b600060208201905061140260008301846113de565b92915050565b7f4e487b7100000000000000000000000000000000000000000000000000000000600052600160045260246000fd5b60008151905061144681611188565b92915050565b60006020828403121561146257611461611179565b5b600061147084828501611437565b91505092915050565b600082825260208201905092915050565b7f596f75206e65656420746f20617070726f7665206c6f7474657279546f6b656e60008201527f732066726f6d20746865206c6f747465727920636f6e7472616374206669727360208201527f7400000000000000000000000000000000000000000000000000000000000000604082015250565b600061150c604183611479565b91506115178261148a565b606082019050919050565b6000602082019050818103600083015261153b816114ff565b9050919050565b7f4d696e696d756d20313030204c6f7474657279546f6b656e7320746f20656e7460008201527f6572000000000000000000000000000000000000000000000000000000000000602082015250565b600061159e602283611479565b91506115a982611542565b604082019050919050565b600060208201905081810360008301526115cd81611591565b9050919050565b60006060820190506115e960008301866112cf565b6115f660208301856112cf565b61160360408301846111e1565b949350505050565b60008115159050919050565b6116208161160b565b811461162b57600080fd5b50565b60008151905061163d81611617565b92915050565b60006020828403121561165957611658611179565b5b60006116678482850161162e565b91505092915050565b7f4c6f747465727920456e74657265640000000000000000000000000000000000600082015250565b60006116a6600f83611479565b91506116b182611670565b602082019050919050565b60006060820190506116d160008301856112cf565b6116de60208301846111e1565b81810360408301526116ef81611699565b90509392505050565b7f53656e64206f6e6c7920302e312045544820746f206275792031303020746f6b60008201527f656e730000000000000000000000000000000000000000000000000000000000602082015250565b6000611754602383611479565b915061175f826116f8565b604082019050919050565b6000602082019050818103600083015261178381611747565b9050919050565b7f426f7567687420746f6b656e7300000000000000000000000000000000000000600082015250565b60006117c0600d83611479565b91506117cb8261178a565b602082019050919050565b60006060820190506117eb60008301856112cf565b6117f860208301846111e1565b8181036040830152611809816117b3565b90509392505050565b7f56656e646f7220636f6e747261637420686173206e6f7420656e6f756768207460008201527f6f6b656e7320696e206974732062616c616e6365000000000000000000000000602082015250565b600061186e603483611479565b915061187982611812565b604082019050919050565b6000602082019050818103600083015261189d81611861565b9050919050565b60006040820190506118b960008301856112cf565b6118c660208301846111e1565b9392505050565b7f4661696c656420746f207472616e7366657220746f6b656e20746f2075736572600082015250565b6000611903602083611479565b915061190e826118cd565b602082019050919050565b60006020820190508181036000830152611932816118f6565b9050919050565b600060608201905061194e60008301866112cf565b61195b60208301856111e1565b61196860408301846111e1565b949350505050565b7f4f776e61626c653a2063616c6c6572206973206e6f7420746865206f776e6572600082015250565b60006119a6602083611479565b91506119b182611970565b602082019050919050565b600060208201905081810360008301526119d581611999565b9050919050565b7f4e487b7100000000000000000000000000000000000000000000000000000000600052601160045260246000fd5b6000611a168261117e565b9150611a218361117e565b925082821015611a3457611a336119dc565b5b828203905092915050565b7f4e487b7100000000000000000000000000000000000000000000000000000000600052603260045260246000fd5b7f4c6f747465727920616c726561647920636c6f73656400000000000000000000600082015250565b6000611aa4601683611479565b9150611aaf82611a6e565b602082019050919050565b60006020820190508181036000830152611ad381611a97565b9050919050565b7f4e487b7100000000000000000000000000000000000000000000000000000000600052604160045260246000fd5b7f4c6f747465727920616c7265616479206f70656e000000000000000000000000600082015250565b6000611b3f601483611479565b9150611b4a82611b09565b602082019050919050565b60006020820190508181036000830152611b6e81611b32565b9050919050565b6000819050919050565b611b90611b8b8261117e565b611b75565b82525050565b600081549050919050565b600081905092915050565b60008190508160005260206000209050919050565b611bca81611352565b82525050565b6000611bdc8383611bc1565b60208301905092915050565b60008160001c9050919050565b600073ffffffffffffffffffffffffffffffffffffffff82169050919050565b6000611c28611c2383611be8565b611bf5565b9050919050565b6000611c3b8254611c15565b9050919050565b6000600182019050919050565b6000611c5a82611b96565b611c648185611ba1565b9350611c6f83611bac565b8060005b83811015611ca757611c8482611c2f565b611c8e8882611bd0565b9750611c9983611c42565b925050600181019050611c73565b5085935050505092915050565b6000611cc08286611b7f565b602082019150611cd08285611b7f565b602082019150611ce08284611c4f565b9150819050949350505050565b7f4f776e61626c653a206e6577206f776e657220697320746865207a65726f206160008201527f6464726573730000000000000000000000000000000000000000000000000000602082015250565b6000611d49602683611479565b9150611d5482611ced565b604082019050919050565b60006020820190508181036000830152611d7881611d3c565b905091905056fea26469706673582212200caab3dca546ebc9cbb8aeb5719be5fbee87cfb805390394ac17125deffe3f8564736f6c634300080d0033",
  "immutableReferences": {},
  "source": "// SPDX-License-Identifier: GPL-3.0\n\npragma solidity >=0.4.22 <0.9.0;\n\nimport \"@openzeppelin/contracts/access/Ownable.sol\";\n\nimport \"./Events.sol\";\nimport \"./LotteryToken.sol\";\n\ncontract Lottery is Ownable, Events {\n    enum LOTTERY_STATE {\n        OPEN,\n        CLOSED,\n        CALCULATING_WINNER\n    }\n    LOTTERY_STATE public lottery_state;\n    uint256 private constant _PRIZE_FUND = 1000;\n    address payable[] public players;\n    mapping(address => bool) playersMap;\n    address public lastWinner;\n    address public saleTokens;\n\n    LotteryToken public token;\n\n    constructor(address tokenAddress) {\n        token = LotteryToken(tokenAddress);\n        lottery_state = LOTTERY_STATE.OPEN;\n    }\n\n    modifier lotteryIsOpen() {\n        assert(lottery_state == LOTTERY_STATE.OPEN);\n        _;\n    }\n\n    function closeLottery() public onlyOwner {\n        require(\n            lottery_state != LOTTERY_STATE.CLOSED,\n            \"Lottery already closed\"\n        );\n        // reset dynamic memory array\n        players = new address payable[](0);\n        lottery_state = LOTTERY_STATE.CLOSED;\n    }\n\n    function openLottery() public onlyOwner {\n        require(lottery_state == LOTTERY_STATE.CLOSED, \"Lottery already open\");\n        lottery_state = LOTTERY_STATE.OPEN;\n    }\n\n    function buyLotteryTokens()\n        external\n        payable\n        lotteryIsOpen\n        returns (uint256 tokenAmount)\n    {\n        // 0.1 ether == \"100000000000000000\"\n        require(msg.value == 0.1 ether, \"Send only 0.1 ETH to buy 100 tokens\");\n\n        // Can only buy 100 at a time.\n        uint256 amountToBuy = 100;\n\n        emit Log(msg.sender, amountToBuy, \"Bought tokens\");\n        // basically this on cmd lotteryToken.balanceOf(lottery.address)\n        uint256 lotteryTokenBalance = token.balanceOf(address(this));\n        require(\n            lotteryTokenBalance >= amountToBuy,\n            \"Vendor contract has not enough tokens in its balance\"\n        );\n\n        // Contract A calls Contract B\n        // _transfer(lotteryContract, account[1], amountToBuy);\n        // msg.sender is different from msg.sender in the erc20 as its the lotteryContract in erc20\n        bool sent = token.transfer(msg.sender, amountToBuy);\n        require(sent, \"Failed to transfer token to user\");\n\n        emit BuyTokens(msg.sender, msg.value, amountToBuy);\n\n        return amountToBuy;\n    }\n\n    function enterLottery(uint256 lotteryTokensAmountToEnter)\n        external\n        lotteryIsOpen\n    {\n        uint256 playerBalance = token.balanceOf(msg.sender);\n        require(\n            playerBalance >= 0,\n            \"You need to approve lotteryTokens from the lottery contract first\"\n        );\n        require(\n            lotteryTokensAmountToEnter >= 100,\n            \"Minimum 100 LotteryTokens to enter\"\n        );\n\n        // does not work\n        // token.approve(address(this), amountToEnter)\n        // because Lottery calls LotteryToken and msg.sender becomes Lottery in LotteryToken.approve\n        // not the msg.sender of the call to enterLottery()\n        // Contract A calls Contract B\n\n        // so bought them and then send back to enter the lottery.\n        token.transferFrom(\n            msg.sender,\n            address(this),\n            lotteryTokensAmountToEnter\n        );\n        players.push(payable(msg.sender));\n\n        emit Log(msg.sender, lotteryTokensAmountToEnter, \"Lottery Entered\");\n    }\n\n    function getRandomNumber() public view returns (uint256) {\n        uint256 rnd = uint256(\n            keccak256(\n                abi.encodePacked(block.difficulty, block.timestamp, players)\n            )\n        );\n\n        return rnd;\n    }\n\n    function pickWinner() public lotteryIsOpen onlyOwner {\n        lottery_state = LOTTERY_STATE.CALCULATING_WINNER;\n\n        // TODO with getRandomNumber()\n        lastWinner = players[players.length - 1];\n        uint256 winnings = address(this).balance;\n\n        closeLottery();\n\n        payable(lastWinner).transfer(address(this).balance);\n\n        emit WinnerDeclared(lastWinner, winnings);\n    }\n\n    //    function isParticipate(address _participant) private view returns (bool) {\n    //        for (uint256 i = 0; i < players.length; i++) {\n    //            if (players[i] == _participant) {\n    //                return true;\n    //            }\n    //        }\n    //        return false;\n    //    }\n}\n\n// cmds\n\n// const lottery  = await Lottery.deployed()\n// const lotteryToken  = await LotteryToken.deployed()\n\n// web3.eth.getBalance(lottery.address);  // no eth\n// lotteryToken.balanceOf(lottery.address) // gives lottery quota 1000000\n\n// await lotteryToken.totalSupply() // gives max coins 2500000\n\n// lotteryToken.balanceOf(accounts[1])  0\n\n// lottery.buyLotteryTokens({ from:accounts[1], value:\"100000000000000000\"})\n\n// must approve from the token first.\n// lotteryToken.allowance(accounts[1], lottery.address) // 0\n// lotteryToken.approve(lottery.address, \"100\", { from:accounts[1] }); // owner => (spender => amount)\n// lotteryToken.allowance(accounts[1], lottery.address) // 100\n\n// Now enter and use the transferFrom\n// const res = await lottery.enterLottery(\"100\", { from:accounts[1] })\n\n// lottery.pickWinner()\n\n// Other\n// res.logs[1].args.amount\n\n// fromWei converts any wei value into a ether value.\n// const amountToBuy =  web3.utils.fromWei(\"100000000000000000\")\n",
  "sourcePath": "/Users/zak/Dropbox/Code/dapps/lottery/contracts/Lottery.sol",
  "compiler": {
    "name": "solc",
    "version": "0.8.13+commit.abaa5c0e.Emscripten.clang"
  },
  "schemaVersion": "3.4.7",
  "updatedAt": "2022-06-07T09:51:16.584Z",
  "networkType": "ethereum",
  "devdoc": {
    "kind": "dev",
    "methods": {
      "owner()": {
        "details": "Returns the address of the current owner."
      },
      "renounceOwnership()": {
        "details": "Leaves the contract without owner. It will not be possible to call `onlyOwner` functions anymore. Can only be called by the current owner. NOTE: Renouncing ownership will leave the contract without an owner, thereby removing any functionality that is only available to the owner."
      },
      "transferOwnership(address)": {
        "details": "Transfers ownership of the contract to a new account (`newOwner`). Can only be called by the current owner."
      }
    },
    "version": 1
  },
  "userdoc": {
    "kind": "user",
    "methods": {},
    "version": 1
  }
}