{
  "contractName": "Lottery",
  "abi": [
    {
      "inputs": [
        {
          "internalType": "address",
          "name": "tokenAddress",
          "type": "address"
        }
      ],
      "stateMutability": "nonpayable",
      "type": "constructor"
    },
    {
      "anonymous": false,
      "inputs": [
        {
          "indexed": false,
          "internalType": "address",
          "name": "buyer",
          "type": "address"
        },
        {
          "indexed": false,
          "internalType": "uint256",
          "name": "amountOfETH",
          "type": "uint256"
        },
        {
          "indexed": false,
          "internalType": "uint256",
          "name": "amountOfTokens",
          "type": "uint256"
        }
      ],
      "name": "BuyTokens",
      "type": "event"
    },
    {
      "anonymous": false,
      "inputs": [
        {
          "indexed": false,
          "internalType": "address",
          "name": "addr",
          "type": "address"
        },
        {
          "indexed": false,
          "internalType": "uint256",
          "name": "amount",
          "type": "uint256"
        },
        {
          "indexed": false,
          "internalType": "string",
          "name": "msg",
          "type": "string"
        }
      ],
      "name": "Log",
      "type": "event"
    },
    {
      "anonymous": false,
      "inputs": [
        {
          "indexed": true,
          "internalType": "address",
          "name": "previousOwner",
          "type": "address"
        },
        {
          "indexed": true,
          "internalType": "address",
          "name": "newOwner",
          "type": "address"
        }
      ],
      "name": "OwnershipTransferred",
      "type": "event"
    },
    {
      "anonymous": false,
      "inputs": [
        {
          "indexed": false,
          "internalType": "address",
          "name": "buyer",
          "type": "address"
        },
        {
          "indexed": false,
          "internalType": "uint256",
          "name": "amountOfETH",
          "type": "uint256"
        },
        {
          "indexed": false,
          "internalType": "uint256",
          "name": "amountOfTokens",
          "type": "uint256"
        }
      ],
      "name": "SoldTokens",
      "type": "event"
    },
    {
      "anonymous": false,
      "inputs": [
        {
          "indexed": false,
          "internalType": "address",
          "name": "winner",
          "type": "address"
        },
        {
          "indexed": false,
          "internalType": "uint256",
          "name": "winnings",
          "type": "uint256"
        }
      ],
      "name": "WinnerDeclared",
      "type": "event"
    },
    {
      "inputs": [],
      "name": "lastWinner",
      "outputs": [
        {
          "internalType": "address",
          "name": "",
          "type": "address"
        }
      ],
      "stateMutability": "view",
      "type": "function",
      "constant": true
    },
    {
      "inputs": [],
      "name": "lottery_state",
      "outputs": [
        {
          "internalType": "enum Lottery.LOTTERY_STATE",
          "name": "",
          "type": "uint8"
        }
      ],
      "stateMutability": "view",
      "type": "function",
      "constant": true
    },
    {
      "inputs": [],
      "name": "owner",
      "outputs": [
        {
          "internalType": "address",
          "name": "",
          "type": "address"
        }
      ],
      "stateMutability": "view",
      "type": "function",
      "constant": true
    },
    {
      "inputs": [],
      "name": "player",
      "outputs": [
        {
          "internalType": "address",
          "name": "addr",
          "type": "address"
        },
        {
          "internalType": "uint256",
          "name": "totalEntered",
          "type": "uint256"
        }
      ],
      "stateMutability": "view",
      "type": "function",
      "constant": true
    },
    {
      "inputs": [
        {
          "internalType": "address",
          "name": "",
          "type": "address"
        }
      ],
      "name": "players",
      "outputs": [
        {
          "internalType": "address",
          "name": "addr",
          "type": "address"
        },
        {
          "internalType": "uint256",
          "name": "totalEntered",
          "type": "uint256"
        }
      ],
      "stateMutability": "view",
      "type": "function",
      "constant": true
    },
    {
      "inputs": [
        {
          "internalType": "uint256",
          "name": "",
          "type": "uint256"
        }
      ],
      "name": "playersAddresses",
      "outputs": [
        {
          "internalType": "address payable",
          "name": "",
          "type": "address"
        }
      ],
      "stateMutability": "view",
      "type": "function",
      "constant": true
    },
    {
      "inputs": [],
      "name": "renounceOwnership",
      "outputs": [],
      "stateMutability": "nonpayable",
      "type": "function"
    },
    {
      "inputs": [],
      "name": "saleTokens",
      "outputs": [
        {
          "internalType": "address",
          "name": "",
          "type": "address"
        }
      ],
      "stateMutability": "view",
      "type": "function",
      "constant": true
    },
    {
      "inputs": [],
      "name": "token",
      "outputs": [
        {
          "internalType": "contract LotteryToken",
          "name": "",
          "type": "address"
        }
      ],
      "stateMutability": "view",
      "type": "function",
      "constant": true
    },
    {
      "inputs": [
        {
          "internalType": "address",
          "name": "newOwner",
          "type": "address"
        }
      ],
      "name": "transferOwnership",
      "outputs": [],
      "stateMutability": "nonpayable",
      "type": "function"
    },
    {
      "inputs": [],
      "name": "closeLottery",
      "outputs": [],
      "stateMutability": "nonpayable",
      "type": "function"
    },
    {
      "inputs": [],
      "name": "openLottery",
      "outputs": [],
      "stateMutability": "nonpayable",
      "type": "function"
    },
    {
      "inputs": [],
      "name": "buyLotteryTokens",
      "outputs": [
        {
          "internalType": "uint256",
          "name": "tokenAmount",
          "type": "uint256"
        }
      ],
      "stateMutability": "payable",
      "type": "function",
      "payable": true
    },
    {
      "inputs": [
        {
          "internalType": "uint256",
          "name": "lotteryTokensAmountToEnter",
          "type": "uint256"
        }
      ],
      "name": "enterLottery",
      "outputs": [],
      "stateMutability": "nonpayable",
      "type": "function"
    },
    {
      "inputs": [],
      "name": "getRandomNumber",
      "outputs": [
        {
          "internalType": "uint256",
          "name": "",
          "type": "uint256"
        }
      ],
      "stateMutability": "view",
      "type": "function",
      "constant": true
    },
    {
      "inputs": [],
      "name": "pickWinner",
      "outputs": [],
      "stateMutability": "nonpayable",
      "type": "function"
    }
  ],
  "bytecode": "0x60806040523480156200001157600080fd5b506040516200257d3803806200257d833981810160405281019062000037919062000202565b620000576200004b620000cc60201b60201c565b620000d460201b60201c565b80600460006101000a81548173ffffffffffffffffffffffffffffffffffffffff021916908373ffffffffffffffffffffffffffffffffffffffff16021790555060008060146101000a81548160ff02191690836002811115620000c057620000bf62000234565b5b02179055505062000263565b600033905090565b60008060009054906101000a900473ffffffffffffffffffffffffffffffffffffffff169050816000806101000a81548173ffffffffffffffffffffffffffffffffffffffff021916908373ffffffffffffffffffffffffffffffffffffffff1602179055508173ffffffffffffffffffffffffffffffffffffffff168173ffffffffffffffffffffffffffffffffffffffff167f8be0079c531659141344cd1fd0a4f28419497f9722a3daafe3b4186f6b6457e060405160405180910390a35050565b600080fd5b600073ffffffffffffffffffffffffffffffffffffffff82169050919050565b6000620001ca826200019d565b9050919050565b620001dc81620001bd565b8114620001e857600080fd5b50565b600081519050620001fc81620001d1565b92915050565b6000602082840312156200021b576200021a62000198565b5b60006200022b84828501620001eb565b91505092915050565b7f4e487b7100000000000000000000000000000000000000000000000000000000600052602160045260246000fd5b61230a80620002736000396000f3fe6080604052600436106100f35760003560e01c80638da5cb5b1161008a578063e2eb41ff11610059578063e2eb41ff146102b0578063f2fde38b146102ee578063fc0c546a14610317578063fe18818414610342576100f3565b80638da5cb5b146102185780639dfecdcc14610243578063b0b9603b1461025a578063dbdff2c114610285576100f3565b80635d495aea116100c65780635d495aea146101a85780636fd09816146101bf578063715018a6146101d657806381447999146101ed576100f3565b80633fd43098146100f8578063472016da1461012157806348db5f891461015e578063589281f41461018a575b600080fd5b34801561010457600080fd5b5061011f600480360381019061011a9190611676565b61036d565b005b34801561012d57600080fd5b5061014860048036038101906101439190611676565b610692565b60405161015591906116e4565b60405180910390f35b34801561016a57600080fd5b506101736106d1565b60405161018192919061172f565b60405180910390f35b610192610703565b60405161019f9190611758565b60405180910390f35b3480156101b457600080fd5b506101bd610a0e565b005b3480156101cb57600080fd5b506101d4610c5a565b005b3480156101e257600080fd5b506101eb610dd9565b005b3480156101f957600080fd5b50610202610e61565b60405161020f91906117ea565b60405180910390f35b34801561022457600080fd5b5061022d610e74565b60405161023a9190611805565b60405180910390f35b34801561024f57600080fd5b50610258610e9d565b005b34801561026657600080fd5b5061026f610fbb565b60405161027c9190611805565b60405180910390f35b34801561029157600080fd5b5061029a610fe1565b6040516102a79190611758565b60405180910390f35b3480156102bc57600080fd5b506102d760048036038101906102d2919061184c565b61101c565b6040516102e592919061172f565b60405180910390f35b3480156102fa57600080fd5b506103156004803603810190610310919061184c565b611060565b005b34801561032357600080fd5b5061032c611157565b60405161033991906118d8565b60405180910390f35b34801561034e57600080fd5b5061035761117d565b6040516103649190611805565b60405180910390f35b6000600281111561038157610380611773565b5b600060149054906101000a900460ff1660028111156103a3576103a2611773565b5b146103e3576040517f08c379a00000000000000000000000000000000000000000000000000000000081526004016103da90611950565b60405180910390fd5b6000600460009054906101000a900473ffffffffffffffffffffffffffffffffffffffff1673ffffffffffffffffffffffffffffffffffffffff166370a08231336040518263ffffffff1660e01b81526004016104409190611805565b602060405180830381865afa15801561045d573d6000803e3d6000fd5b505050506040513d601f19601f820116820180604052508101906104819190611985565b905060008110156104c7576040517f08c379a00000000000000000000000000000000000000000000000000000000081526004016104be90611a4a565b60405180910390fd5b606482101561050b576040517f08c379a000000000000000000000000000000000000000000000000000000000815260040161050290611adc565b60405180910390fd5b600460009054906101000a900473ffffffffffffffffffffffffffffffffffffffff1673ffffffffffffffffffffffffffffffffffffffff166323b872dd3330856040518463ffffffff1660e01b815260040161056a93929190611afc565b6020604051808303816000875af1158015610589573d6000803e3d6000fd5b505050506040513d601f19601f820116820180604052508101906105ad9190611b6b565b506000600760003373ffffffffffffffffffffffffffffffffffffffff1673ffffffffffffffffffffffffffffffffffffffff1681526020019081526020016000206001015411156106085761060333836111a3565b610613565b610612338361132b565b5b7f4e3358e5bdb38f499a83fbcd33d16343569f3b6fe53021022dede6364017b4a833600760003373ffffffffffffffffffffffffffffffffffffffff1673ffffffffffffffffffffffffffffffffffffffff16815260200190815260200160002060010154604051610686929190611be4565b60405180910390a15050565b600181815481106106a257600080fd5b906000526020600020016000915054906101000a900473ffffffffffffffffffffffffffffffffffffffff1681565b60058060000160009054906101000a900473ffffffffffffffffffffffffffffffffffffffff16908060010154905082565b600080600281111561071857610717611773565b5b600060149054906101000a900460ff16600281111561073a57610739611773565b5b1461077a576040517f08c379a000000000000000000000000000000000000000000000000000000000815260040161077190611950565b60405180910390fd5b67016345785d8a000034146107c4576040517f08c379a00000000000000000000000000000000000000000000000000000000081526004016107bb90611c92565b60405180910390fd5b6000606490507f4e3358e5bdb38f499a83fbcd33d16343569f3b6fe53021022dede6364017b4a833826040516107fb929190611cfe565b60405180910390a16000600460009054906101000a900473ffffffffffffffffffffffffffffffffffffffff1673ffffffffffffffffffffffffffffffffffffffff166370a08231306040518263ffffffff1660e01b81526004016108609190611805565b602060405180830381865afa15801561087d573d6000803e3d6000fd5b505050506040513d601f19601f820116820180604052508101906108a19190611985565b9050818110156108e6576040517f08c379a00000000000000000000000000000000000000000000000000000000081526004016108dd90611dac565b60405180910390fd5b6000600460009054906101000a900473ffffffffffffffffffffffffffffffffffffffff1673ffffffffffffffffffffffffffffffffffffffff1663a9059cbb33856040518363ffffffff1660e01b815260040161094592919061172f565b6020604051808303816000875af1158015610964573d6000803e3d6000fd5b505050506040513d601f19601f820116820180604052508101906109889190611b6b565b9050806109ca576040517f08c379a00000000000000000000000000000000000000000000000000000000081526004016109c190611e18565b60405180910390fd5b7f0a37b72bb67eee30e09084cf386f8a17817c57f620c3ab95fb25d6a20356ec773334856040516109fd93929190611e38565b60405180910390a182935050505090565b60006002811115610a2257610a21611773565b5b600060149054906101000a900460ff166002811115610a4457610a43611773565b5b14610a84576040517f08c379a0000000000000000000000000000000000000000000000000000000008152600401610a7b90611950565b60405180910390fd5b610a8c6114c8565b73ffffffffffffffffffffffffffffffffffffffff16610aaa610e74565b73ffffffffffffffffffffffffffffffffffffffff1614610b00576040517f08c379a0000000000000000000000000000000000000000000000000000000008152600401610af790611ebb565b60405180910390fd5b6001808080549050610b129190611f0a565b81548110610b2357610b22611f3e565b5b9060005260206000200160009054906101000a900473ffffffffffffffffffffffffffffffffffffffff16600260006101000a81548173ffffffffffffffffffffffffffffffffffffffff021916908373ffffffffffffffffffffffffffffffffffffffff1602179055506000479050600260009054906101000a900473ffffffffffffffffffffffffffffffffffffffff1673ffffffffffffffffffffffffffffffffffffffff166108fc479081150290604051600060405180830381858888f19350505050158015610bfb573d6000803e3d6000fd5b507f3cf1af53e79884a92609ce59db1ec9f584d88e2d14c8eaba43a21db81318301e600260009054906101000a900473ffffffffffffffffffffffffffffffffffffffff1682604051610c4f92919061172f565b60405180910390a150565b610c626114c8565b73ffffffffffffffffffffffffffffffffffffffff16610c80610e74565b73ffffffffffffffffffffffffffffffffffffffff1614610cd6576040517f08c379a0000000000000000000000000000000000000000000000000000000008152600401610ccd90611ebb565b60405180910390fd5b60016002811115610cea57610ce9611773565b5b600060149054906101000a900460ff166002811115610d0c57610d0b611773565b5b03610d4c576040517f08c379a0000000000000000000000000000000000000000000000000000000008152600401610d4390611fb9565b60405180910390fd5b600067ffffffffffffffff811115610d6757610d66611fd9565b5b604051908082528060200260200182016040528015610d955781602001602082028036833780820191505090505b5060019080519060200190610dab929190611594565b506001600060146101000a81548160ff02191690836002811115610dd257610dd1611773565b5b0217905550565b610de16114c8565b73ffffffffffffffffffffffffffffffffffffffff16610dff610e74565b73ffffffffffffffffffffffffffffffffffffffff1614610e55576040517f08c379a0000000000000000000000000000000000000000000000000000000008152600401610e4c90611ebb565b60405180910390fd5b610e5f60006114d0565b565b600060149054906101000a900460ff1681565b60008060009054906101000a900473ffffffffffffffffffffffffffffffffffffffff16905090565b610ea56114c8565b73ffffffffffffffffffffffffffffffffffffffff16610ec3610e74565b73ffffffffffffffffffffffffffffffffffffffff1614610f19576040517f08c379a0000000000000000000000000000000000000000000000000000000008152600401610f1090611ebb565b60405180910390fd5b60016002811115610f2d57610f2c611773565b5b600060149054906101000a900460ff166002811115610f4f57610f4e611773565b5b14610f8f576040517f08c379a0000000000000000000000000000000000000000000000000000000008152600401610f8690612054565b60405180910390fd5b60008060146101000a81548160ff02191690836002811115610fb457610fb3611773565b5b0217905550565b600360009054906101000a900473ffffffffffffffffffffffffffffffffffffffff1681565b60008044426001604051602001610ffa939291906121b3565b6040516020818303038152906040528051906020012060001c90508091505090565b60076020528060005260406000206000915090508060000160009054906101000a900473ffffffffffffffffffffffffffffffffffffffff16908060010154905082565b6110686114c8565b73ffffffffffffffffffffffffffffffffffffffff16611086610e74565b73ffffffffffffffffffffffffffffffffffffffff16146110dc576040517f08c379a00000000000000000000000000000000000000000000000000000000081526004016110d390611ebb565b60405180910390fd5b600073ffffffffffffffffffffffffffffffffffffffff168173ffffffffffffffffffffffffffffffffffffffff160361114b576040517f08c379a00000000000000000000000000000000000000000000000000000000081526004016111429061225e565b60405180910390fd5b611154816114d0565b50565b600460009054906101000a900473ffffffffffffffffffffffffffffffffffffffff1681565b600260009054906101000a900473ffffffffffffffffffffffffffffffffffffffff1681565b600760008373ffffffffffffffffffffffffffffffffffffffff1673ffffffffffffffffffffffffffffffffffffffff16815260200190815260200160002060056000820160009054906101000a900473ffffffffffffffffffffffffffffffffffffffff168160000160006101000a81548173ffffffffffffffffffffffffffffffffffffffff021916908373ffffffffffffffffffffffffffffffffffffffff1602179055506001820154816001015590505080600560010154611269919061227e565b6005600101819055506005600760008473ffffffffffffffffffffffffffffffffffffffff1673ffffffffffffffffffffffffffffffffffffffff1681526020019081526020016000206000820160009054906101000a900473ffffffffffffffffffffffffffffffffffffffff168160000160006101000a81548173ffffffffffffffffffffffffffffffffffffffff021916908373ffffffffffffffffffffffffffffffffffffffff160217905550600182015481600101559050505050565b6001829080600181540180825580915050600190039060005260206000200160009091909190916101000a81548173ffffffffffffffffffffffffffffffffffffffff021916908373ffffffffffffffffffffffffffffffffffffffff16021790555060405180604001604052808373ffffffffffffffffffffffffffffffffffffffff16815260200182815250600560008201518160000160006101000a81548173ffffffffffffffffffffffffffffffffffffffff021916908373ffffffffffffffffffffffffffffffffffffffff160217905550602082015181600101559050506005600760008473ffffffffffffffffffffffffffffffffffffffff1673ffffffffffffffffffffffffffffffffffffffff1681526020019081526020016000206000820160009054906101000a900473ffffffffffffffffffffffffffffffffffffffff168160000160006101000a81548173ffffffffffffffffffffffffffffffffffffffff021916908373ffffffffffffffffffffffffffffffffffffffff160217905550600182015481600101559050505050565b600033905090565b60008060009054906101000a900473ffffffffffffffffffffffffffffffffffffffff169050816000806101000a81548173ffffffffffffffffffffffffffffffffffffffff021916908373ffffffffffffffffffffffffffffffffffffffff1602179055508173ffffffffffffffffffffffffffffffffffffffff168173ffffffffffffffffffffffffffffffffffffffff167f8be0079c531659141344cd1fd0a4f28419497f9722a3daafe3b4186f6b6457e060405160405180910390a35050565b82805482825590600052602060002090810192821561160d579160200282015b8281111561160c5782518260006101000a81548173ffffffffffffffffffffffffffffffffffffffff021916908373ffffffffffffffffffffffffffffffffffffffff160217905550916020019190600101906115b4565b5b50905061161a919061161e565b5090565b5b8082111561163757600081600090555060010161161f565b5090565b600080fd5b6000819050919050565b61165381611640565b811461165e57600080fd5b50565b6000813590506116708161164a565b92915050565b60006020828403121561168c5761168b61163b565b5b600061169a84828501611661565b91505092915050565b600073ffffffffffffffffffffffffffffffffffffffff82169050919050565b60006116ce826116a3565b9050919050565b6116de816116c3565b82525050565b60006020820190506116f960008301846116d5565b92915050565b600061170a826116a3565b9050919050565b61171a816116ff565b82525050565b61172981611640565b82525050565b60006040820190506117446000830185611711565b6117516020830184611720565b9392505050565b600060208201905061176d6000830184611720565b92915050565b7f4e487b7100000000000000000000000000000000000000000000000000000000600052602160045260246000fd5b600381106117b3576117b2611773565b5b50565b60008190506117c4826117a2565b919050565b60006117d4826117b6565b9050919050565b6117e4816117c9565b82525050565b60006020820190506117ff60008301846117db565b92915050565b600060208201905061181a6000830184611711565b92915050565b611829816116ff565b811461183457600080fd5b50565b60008135905061184681611820565b92915050565b6000602082840312156118625761186161163b565b5b600061187084828501611837565b91505092915050565b6000819050919050565b600061189e611899611894846116a3565b611879565b6116a3565b9050919050565b60006118b082611883565b9050919050565b60006118c2826118a5565b9050919050565b6118d2816118b7565b82525050565b60006020820190506118ed60008301846118c9565b92915050565b600082825260208201905092915050565b7f4c6f7474657279204953206e6f74206f70656e00000000000000000000000000600082015250565b600061193a6013836118f3565b915061194582611904565b602082019050919050565b600060208201905081810360008301526119698161192d565b9050919050565b60008151905061197f8161164a565b92915050565b60006020828403121561199b5761199a61163b565b5b60006119a984828501611970565b91505092915050565b7f596f75206e65656420746f20617070726f7665206c6f7474657279546f6b656e60008201527f732066726f6d20746865206c6f747465727920636f6e7472616374206669727360208201527f7400000000000000000000000000000000000000000000000000000000000000604082015250565b6000611a346041836118f3565b9150611a3f826119b2565b606082019050919050565b60006020820190508181036000830152611a6381611a27565b9050919050565b7f4d696e696d756d20313030204c6f7474657279546f6b656e7320746f20656e7460008201527f6572000000000000000000000000000000000000000000000000000000000000602082015250565b6000611ac66022836118f3565b9150611ad182611a6a565b604082019050919050565b60006020820190508181036000830152611af581611ab9565b9050919050565b6000606082019050611b116000830186611711565b611b1e6020830185611711565b611b2b6040830184611720565b949350505050565b60008115159050919050565b611b4881611b33565b8114611b5357600080fd5b50565b600081519050611b6581611b3f565b92915050565b600060208284031215611b8157611b8061163b565b5b6000611b8f84828501611b56565b91505092915050565b7f4c6f747465727920456e74657265640000000000000000000000000000000000600082015250565b6000611bce600f836118f3565b9150611bd982611b98565b602082019050919050565b6000606082019050611bf96000830185611711565b611c066020830184611720565b8181036040830152611c1781611bc1565b90509392505050565b7f53656e64206f6e6c7920302e312045544820746f206275792031303020746f6b60008201527f656e730000000000000000000000000000000000000000000000000000000000602082015250565b6000611c7c6023836118f3565b9150611c8782611c20565b604082019050919050565b60006020820190508181036000830152611cab81611c6f565b9050919050565b7f426f7567687420746f6b656e7300000000000000000000000000000000000000600082015250565b6000611ce8600d836118f3565b9150611cf382611cb2565b602082019050919050565b6000606082019050611d136000830185611711565b611d206020830184611720565b8181036040830152611d3181611cdb565b90509392505050565b7f56656e646f7220636f6e747261637420686173206e6f7420656e6f756768207460008201527f6f6b656e7320696e206974732062616c616e6365000000000000000000000000602082015250565b6000611d966034836118f3565b9150611da182611d3a565b604082019050919050565b60006020820190508181036000830152611dc581611d89565b9050919050565b7f4661696c656420746f207472616e7366657220746f6b656e20746f2075736572600082015250565b6000611e026020836118f3565b9150611e0d82611dcc565b602082019050919050565b60006020820190508181036000830152611e3181611df5565b9050919050565b6000606082019050611e4d6000830186611711565b611e5a6020830185611720565b611e676040830184611720565b949350505050565b7f4f776e61626c653a2063616c6c6572206973206e6f7420746865206f776e6572600082015250565b6000611ea56020836118f3565b9150611eb082611e6f565b602082019050919050565b60006020820190508181036000830152611ed481611e98565b9050919050565b7f4e487b7100000000000000000000000000000000000000000000000000000000600052601160045260246000fd5b6000611f1582611640565b9150611f2083611640565b925082821015611f3357611f32611edb565b5b828203905092915050565b7f4e487b7100000000000000000000000000000000000000000000000000000000600052603260045260246000fd5b7f4c6f747465727920616c726561647920636c6f73656400000000000000000000600082015250565b6000611fa36016836118f3565b9150611fae82611f6d565b602082019050919050565b60006020820190508181036000830152611fd281611f96565b9050919050565b7f4e487b7100000000000000000000000000000000000000000000000000000000600052604160045260246000fd5b7f4c6f747465727920616c7265616479206f70656e000000000000000000000000600082015250565b600061203e6014836118f3565b915061204982612008565b602082019050919050565b6000602082019050818103600083015261206d81612031565b9050919050565b6000819050919050565b61208f61208a82611640565b612074565b82525050565b600081549050919050565b600081905092915050565b60008190508160005260206000209050919050565b6120c9816116c3565b82525050565b60006120db83836120c0565b60208301905092915050565b60008160001c9050919050565b600073ffffffffffffffffffffffffffffffffffffffff82169050919050565b6000612127612122836120e7565b6120f4565b9050919050565b600061213a8254612114565b9050919050565b6000600182019050919050565b600061215982612095565b61216381856120a0565b935061216e836120ab565b8060005b838110156121a6576121838261212e565b61218d88826120cf565b975061219883612141565b925050600181019050612172565b5085935050505092915050565b60006121bf828661207e565b6020820191506121cf828561207e565b6020820191506121df828461214e565b9150819050949350505050565b7f4f776e61626c653a206e6577206f776e657220697320746865207a65726f206160008201527f6464726573730000000000000000000000000000000000000000000000000000602082015250565b60006122486026836118f3565b9150612253826121ec565b604082019050919050565b600060208201905081810360008301526122778161223b565b9050919050565b600061228982611640565b915061229483611640565b9250827fffffffffffffffffffffffffffffffffffffffffffffffffffffffffffffffff038211156122c9576122c8611edb565b5b82820190509291505056fea2646970667358221220669d959fa10efa3525a797a50df13fe65f4de9d54bf1104338846e137aed021a64736f6c634300080d0033",
  "immutableReferences": {},
  "source": "// SPDX-License-Identifier: GPL-3.0\n\npragma solidity >=0.4.22 <0.9.0;\n\nimport \"@openzeppelin/contracts/access/Ownable.sol\";\n\nimport \"./Events.sol\";\nimport \"./LotteryToken.sol\";\n\ncontract Lottery is Ownable, Events {\n    enum LOTTERY_STATE {\n        OPEN,\n        CLOSED,\n        CALCULATING_WINNER\n    }\n    LOTTERY_STATE public lottery_state;\n    uint256 private constant _PRIZE_FUND = 1000;\n    address payable[] public playersAddresses;\n    address public lastWinner;\n    address public saleTokens;\n\n    LotteryToken public token;\n\n    struct Player {\n        address addr;\n        uint256 totalEntered;\n    }\n\n    Player public player;\n    mapping(address => Player) public players;\n\n    constructor(address tokenAddress) {\n        token = LotteryToken(tokenAddress);\n        lottery_state = LOTTERY_STATE.OPEN;\n    }\n\n    modifier lotteryIsOpen() {\n        require(lottery_state == LOTTERY_STATE.OPEN, \"Lottery IS not open\");\n        _;\n    }\n\n    function setPLayer(address addr, uint256 amount) private {\n        playersAddresses.push(payable(addr));\n        player = Player(addr, amount);\n        players[addr] = player;\n    }\n\n    function updatePLayer(address addr, uint256 amount) private {\n        player = players[addr];\n        player.totalEntered = player.totalEntered + amount;\n        players[addr] = player;\n    }\n\n    function closeLottery() public onlyOwner {\n        require(\n            lottery_state != LOTTERY_STATE.CLOSED,\n            \"Lottery already closed\"\n        );\n        // reset dynamic memory array\n        playersAddresses = new address payable[](0);\n        lottery_state = LOTTERY_STATE.CLOSED;\n    }\n\n    function openLottery() public onlyOwner {\n        require(lottery_state == LOTTERY_STATE.CLOSED, \"Lottery already open\");\n        lottery_state = LOTTERY_STATE.OPEN;\n    }\n\n    function buyLotteryTokens()\n        external\n        payable\n        lotteryIsOpen\n        returns (uint256 tokenAmount)\n    {\n        // 0.1 ether == \"100000000000000000\"\n        require(msg.value == 0.1 ether, \"Send only 0.1 ETH to buy 100 tokens\");\n\n        // Can only buy 100 at a time.\n        uint256 amountToBuy = 100;\n\n        emit Log(msg.sender, amountToBuy, \"Bought tokens\");\n        // basically this on cmd lotteryToken.balanceOf(lottery.address)\n        uint256 lotteryTokenBalance = token.balanceOf(address(this));\n        require(\n            lotteryTokenBalance >= amountToBuy,\n            \"Vendor contract has not enough tokens in its balance\"\n        );\n\n        // Contract A calls Contract B\n        // _transfer(lotteryContract, account[1], amountToBuy);\n        // msg.sender is different from msg.sender in the erc20 as its the lotteryContract in erc20\n        bool sent = token.transfer(msg.sender, amountToBuy);\n        require(sent, \"Failed to transfer token to user\");\n\n        emit BuyTokens(msg.sender, msg.value, amountToBuy);\n\n        return amountToBuy;\n    }\n\n    function enterLottery(uint256 lotteryTokensAmountToEnter)\n        external\n        lotteryIsOpen\n    {\n        uint256 playerBalance = token.balanceOf(msg.sender);\n        require(\n            playerBalance >= 0,\n            \"You need to approve lotteryTokens from the lottery contract first\"\n        );\n        require(\n            lotteryTokensAmountToEnter >= 100,\n            \"Minimum 100 LotteryTokens to enter\"\n        );\n\n        // does not work\n        // token.approve(address(this), amountToEnter)\n        // because Lottery calls LotteryToken and msg.sender becomes Lottery in LotteryToken.approve\n        // not the msg.sender of the call to enterLottery()\n        // Contract A calls Contract B\n\n        // so bought them and then send back to enter the lottery.\n        token.transferFrom(\n            msg.sender,\n            address(this),\n            lotteryTokensAmountToEnter\n        );\n\n        if (players[msg.sender].totalEntered > 0) {\n            updatePLayer(msg.sender, lotteryTokensAmountToEnter);\n        } else {\n            // new player\n            setPLayer(msg.sender, lotteryTokensAmountToEnter);\n        }\n\n        emit Log(\n            msg.sender,\n            players[msg.sender].totalEntered,\n            \"Lottery Entered\"\n        );\n    }\n\n    function getRandomNumber() public view returns (uint256) {\n        uint256 rnd = uint256(\n            keccak256(\n                abi.encodePacked(\n                    block.difficulty,\n                    block.timestamp,\n                    playersAddresses\n                )\n            )\n        );\n\n        return rnd;\n    }\n\n    function pickWinner() public lotteryIsOpen onlyOwner {\n        //lottery_state = LOTTERY_STATE.CALCULATING_WINNER;\n\n        // TODO with getRandomNumber()\n        lastWinner = playersAddresses[playersAddresses.length - 1];\n        uint256 winnings = address(this).balance;\n\n        //closeLottery();\n\n        payable(lastWinner).transfer(address(this).balance);\n\n        emit WinnerDeclared(lastWinner, winnings);\n    }\n\n    //    function isParticipate(address _participant) private view returns (bool) {\n    //        for (uint256 i = 0; i < players.length; i++) {\n    //            if (players[i] == _participant) {\n    //                return true;\n    //            }\n    //        }\n    //        return false;\n    //    }\n}\n\n// cmds\n\n// const lottery  = await Lottery.deployed()\n// const lotteryToken  = await LotteryToken.deployed()\n\n// web3.eth.getBalance(lottery.address);  // no eth\n// lotteryToken.balanceOf(lottery.address) // gives lottery quota 1000000\n\n// await lotteryToken.totalSupply() // gives max coins 2500000\n\n// lotteryToken.balanceOf(accounts[1])  0\n\n// lottery.buyLotteryTokens({ from:accounts[1], value:\"100000000000000000\"})\n\n// must approve from the token first.\n// lotteryToken.allowance(accounts[1], lottery.address) // 0\n// lotteryToken.approve(lottery.address, \"100\", { from:accounts[1] }); // owner => (spender => amount)\n// lotteryToken.allowance(accounts[1], lottery.address) // 100\n\n// Now enter and use the transferFrom\n// const res = await lottery.enterLottery(\"100\", { from:accounts[1] })\n\n// lottery.playersEnteredBalance[accounts[1]]\n\n// lottery.pickWinner()\n\n// Other\n// res.logs[1].args.amount\n\n// fromWei converts any wei value into a ether value.\n// const amountToBuy =  web3.utils.fromWei(\"100000000000000000\")\n\n// LotteryToken.allowance(accounts[1], Lottery.address)\n",
  "sourcePath": "/Users/zak/Dropbox/Code/dapps/lottery/contracts/Lottery.sol",
  "compiler": {
    "name": "solc",
    "version": "0.8.13+commit.abaa5c0e.Emscripten.clang"
  },
  "schemaVersion": "3.4.7",
  "updatedAt": "2022-07-20T09:05:05.327Z",
  "networkType": "ethereum",
  "devdoc": {
    "kind": "dev",
    "methods": {
      "owner()": {
        "details": "Returns the address of the current owner."
      },
      "renounceOwnership()": {
        "details": "Leaves the contract without owner. It will not be possible to call `onlyOwner` functions anymore. Can only be called by the current owner. NOTE: Renouncing ownership will leave the contract without an owner, thereby removing any functionality that is only available to the owner."
      },
      "transferOwnership(address)": {
        "details": "Transfers ownership of the contract to a new account (`newOwner`). Can only be called by the current owner."
      }
    },
    "version": 1
  },
  "userdoc": {
    "kind": "user",
    "methods": {},
    "version": 1
  }
}