{
  "contractName": "Lottery",
  "abi": [
    {
      "inputs": [
        {
          "internalType": "address",
          "name": "tokenAddress",
          "type": "address"
        }
      ],
      "stateMutability": "nonpayable",
      "type": "constructor"
    },
    {
      "anonymous": false,
      "inputs": [
        {
          "indexed": false,
          "internalType": "address",
          "name": "buyer",
          "type": "address"
        },
        {
          "indexed": false,
          "internalType": "uint256",
          "name": "amountOfETH",
          "type": "uint256"
        },
        {
          "indexed": false,
          "internalType": "uint256",
          "name": "amountOfTokens",
          "type": "uint256"
        }
      ],
      "name": "BuyTokens",
      "type": "event"
    },
    {
      "anonymous": false,
      "inputs": [
        {
          "indexed": false,
          "internalType": "address",
          "name": "addr",
          "type": "address"
        },
        {
          "indexed": false,
          "internalType": "uint256",
          "name": "amount",
          "type": "uint256"
        }
      ],
      "name": "Log",
      "type": "event"
    },
    {
      "anonymous": false,
      "inputs": [
        {
          "indexed": true,
          "internalType": "address",
          "name": "previousOwner",
          "type": "address"
        },
        {
          "indexed": true,
          "internalType": "address",
          "name": "newOwner",
          "type": "address"
        }
      ],
      "name": "OwnershipTransferred",
      "type": "event"
    },
    {
      "anonymous": false,
      "inputs": [
        {
          "indexed": false,
          "internalType": "address",
          "name": "buyer",
          "type": "address"
        },
        {
          "indexed": false,
          "internalType": "uint256",
          "name": "amountOfETH",
          "type": "uint256"
        },
        {
          "indexed": false,
          "internalType": "uint256",
          "name": "amountOfTokens",
          "type": "uint256"
        }
      ],
      "name": "SoldTokens",
      "type": "event"
    },
    {
      "anonymous": false,
      "inputs": [
        {
          "indexed": false,
          "internalType": "address",
          "name": "winner",
          "type": "address"
        },
        {
          "indexed": false,
          "internalType": "uint256",
          "name": "winnings",
          "type": "uint256"
        }
      ],
      "name": "WinnerDeclared",
      "type": "event"
    },
    {
      "inputs": [],
      "name": "lastWinner",
      "outputs": [
        {
          "internalType": "address",
          "name": "",
          "type": "address"
        }
      ],
      "stateMutability": "view",
      "type": "function",
      "constant": true
    },
    {
      "inputs": [],
      "name": "lottery_state",
      "outputs": [
        {
          "internalType": "enum Lottery.LOTTERY_STATE",
          "name": "",
          "type": "uint8"
        }
      ],
      "stateMutability": "view",
      "type": "function",
      "constant": true
    },
    {
      "inputs": [],
      "name": "owner",
      "outputs": [
        {
          "internalType": "address",
          "name": "",
          "type": "address"
        }
      ],
      "stateMutability": "view",
      "type": "function",
      "constant": true
    },
    {
      "inputs": [
        {
          "internalType": "uint256",
          "name": "",
          "type": "uint256"
        }
      ],
      "name": "players",
      "outputs": [
        {
          "internalType": "address payable",
          "name": "",
          "type": "address"
        }
      ],
      "stateMutability": "view",
      "type": "function",
      "constant": true
    },
    {
      "inputs": [],
      "name": "renounceOwnership",
      "outputs": [],
      "stateMutability": "nonpayable",
      "type": "function"
    },
    {
      "inputs": [],
      "name": "saleTokens",
      "outputs": [
        {
          "internalType": "address",
          "name": "",
          "type": "address"
        }
      ],
      "stateMutability": "view",
      "type": "function",
      "constant": true
    },
    {
      "inputs": [],
      "name": "token",
      "outputs": [
        {
          "internalType": "contract LotteryToken",
          "name": "",
          "type": "address"
        }
      ],
      "stateMutability": "view",
      "type": "function",
      "constant": true
    },
    {
      "inputs": [
        {
          "internalType": "address",
          "name": "newOwner",
          "type": "address"
        }
      ],
      "name": "transferOwnership",
      "outputs": [],
      "stateMutability": "nonpayable",
      "type": "function"
    },
    {
      "inputs": [],
      "name": "closeLottery",
      "outputs": [],
      "stateMutability": "nonpayable",
      "type": "function"
    },
    {
      "inputs": [],
      "name": "openLottery",
      "outputs": [],
      "stateMutability": "nonpayable",
      "type": "function"
    },
    {
      "inputs": [],
      "name": "buyLotteryTokens",
      "outputs": [
        {
          "internalType": "uint256",
          "name": "tokenAmount",
          "type": "uint256"
        }
      ],
      "stateMutability": "payable",
      "type": "function",
      "payable": true
    },
    {
      "inputs": [
        {
          "internalType": "uint256",
          "name": "lotteryTokensAmountToEnter",
          "type": "uint256"
        }
      ],
      "name": "enterLottery",
      "outputs": [],
      "stateMutability": "nonpayable",
      "type": "function"
    },
    {
      "inputs": [],
      "name": "getRandomNumber",
      "outputs": [
        {
          "internalType": "uint256",
          "name": "",
          "type": "uint256"
        }
      ],
      "stateMutability": "view",
      "type": "function",
      "constant": true
    },
    {
      "inputs": [],
      "name": "pickWinner",
      "outputs": [],
      "stateMutability": "nonpayable",
      "type": "function"
    }
  ],
  "bytecode": "0x60806040523480156200001157600080fd5b5060405162001ecd38038062001ecd833981810160405281019062000037919062000202565b620000576200004b620000cc60201b60201c565b620000d460201b60201c565b80600460006101000a81548173ffffffffffffffffffffffffffffffffffffffff021916908373ffffffffffffffffffffffffffffffffffffffff16021790555060008060146101000a81548160ff02191690836002811115620000c057620000bf62000234565b5b02179055505062000263565b600033905090565b60008060009054906101000a900473ffffffffffffffffffffffffffffffffffffffff169050816000806101000a81548173ffffffffffffffffffffffffffffffffffffffff021916908373ffffffffffffffffffffffffffffffffffffffff1602179055508173ffffffffffffffffffffffffffffffffffffffff168173ffffffffffffffffffffffffffffffffffffffff167f8be0079c531659141344cd1fd0a4f28419497f9722a3daafe3b4186f6b6457e060405160405180910390a35050565b600080fd5b600073ffffffffffffffffffffffffffffffffffffffff82169050919050565b6000620001ca826200019d565b9050919050565b620001dc81620001bd565b8114620001e857600080fd5b50565b600081519050620001fc81620001d1565b92915050565b6000602082840312156200021b576200021a62000198565b5b60006200022b84828501620001eb565b91505092915050565b7f4e487b7100000000000000000000000000000000000000000000000000000000600052602160045260246000fd5b611c5a80620002736000396000f3fe6080604052600436106100dd5760003560e01c80639dfecdcc1161007f578063f2fde38b11610059578063f2fde38b14610231578063f71d96cb1461025a578063fc0c546a14610297578063fe188184146102c2576100dd565b80639dfecdcc146101c4578063b0b9603b146101db578063dbdff2c114610206576100dd565b80636fd09816116100bb5780636fd0981614610140578063715018a614610157578063814479991461016e5780638da5cb5b14610199576100dd565b80633fd43098146100e2578063589281f41461010b5780635d495aea14610129575b600080fd5b3480156100ee57600080fd5b50610109600480360381019061010491906111a0565b6102ed565b005b610113610588565b60405161012091906111dc565b60405180910390f35b34801561013557600080fd5b5061013e610861565b005b34801561014c57600080fd5b50610155610aae565b005b34801561016357600080fd5b5061016c610c2d565b005b34801561017a57600080fd5b50610183610cb5565b604051610190919061126e565b60405180910390f35b3480156101a557600080fd5b506101ae610cc8565b6040516101bb91906112ca565b60405180910390f35b3480156101d057600080fd5b506101d9610cf1565b005b3480156101e757600080fd5b506101f0610e0f565b6040516101fd91906112ca565b60405180910390f35b34801561021257600080fd5b5061021b610e35565b60405161022891906111dc565b60405180910390f35b34801561023d57600080fd5b5061025860048036038101906102539190611311565b610e70565b005b34801561026657600080fd5b50610281600480360381019061027c91906111a0565b610f67565b60405161028e919061135f565b60405180910390f35b3480156102a357600080fd5b506102ac610fa6565b6040516102b991906113d9565b60405180910390f35b3480156102ce57600080fd5b506102d7610fcc565b6040516102e491906112ca565b60405180910390f35b60006002811115610301576103006111f7565b5b600060149054906101000a900460ff166002811115610323576103226111f7565b5b14610331576103306113f4565b5b6000600460009054906101000a900473ffffffffffffffffffffffffffffffffffffffff1673ffffffffffffffffffffffffffffffffffffffff166370a08231336040518263ffffffff1660e01b815260040161038e91906112ca565b602060405180830381865afa1580156103ab573d6000803e3d6000fd5b505050506040513d601f19601f820116820180604052508101906103cf9190611438565b90506000811015610415576040517f08c379a000000000000000000000000000000000000000000000000000000000815260040161040c9061150e565b60405180910390fd5b6064821015610459576040517f08c379a0000000000000000000000000000000000000000000000000000000008152600401610450906115a0565b60405180910390fd5b600460009054906101000a900473ffffffffffffffffffffffffffffffffffffffff1673ffffffffffffffffffffffffffffffffffffffff166379cc679033846040518363ffffffff1660e01b81526004016104b69291906115c0565b600060405180830381600087803b1580156104d057600080fd5b505af11580156104e4573d6000803e3d6000fd5b505050506001339080600181540180825580915050600190039060005260206000200160009091909190916101000a81548173ffffffffffffffffffffffffffffffffffffffff021916908373ffffffffffffffffffffffffffffffffffffffff1602179055507ff950957d2407bed19dc99b718b46b4ce6090c05589006dfb86fd22c34865b23e308360405161057c9291906115c0565b60405180910390a15050565b600080600281111561059d5761059c6111f7565b5b600060149054906101000a900460ff1660028111156105bf576105be6111f7565b5b146105cd576105cc6113f4565b5b67016345785d8a00003414610617576040517f08c379a000000000000000000000000000000000000000000000000000000000815260040161060e9061165b565b60405180910390fd5b6000606490507ff950957d2407bed19dc99b718b46b4ce6090c05589006dfb86fd22c34865b23e338260405161064e9291906115c0565b60405180910390a16000600460009054906101000a900473ffffffffffffffffffffffffffffffffffffffff1673ffffffffffffffffffffffffffffffffffffffff166370a08231306040518263ffffffff1660e01b81526004016106b391906112ca565b602060405180830381865afa1580156106d0573d6000803e3d6000fd5b505050506040513d601f19601f820116820180604052508101906106f49190611438565b905081811015610739576040517f08c379a0000000000000000000000000000000000000000000000000000000008152600401610730906116ed565b60405180910390fd5b6000600460009054906101000a900473ffffffffffffffffffffffffffffffffffffffff1673ffffffffffffffffffffffffffffffffffffffff1663a9059cbb33856040518363ffffffff1660e01b81526004016107989291906115c0565b6020604051808303816000875af11580156107b7573d6000803e3d6000fd5b505050506040513d601f19601f820116820180604052508101906107db9190611745565b90508061081d576040517f08c379a0000000000000000000000000000000000000000000000000000000008152600401610814906117be565b60405180910390fd5b7f0a37b72bb67eee30e09084cf386f8a17817c57f620c3ab95fb25d6a20356ec77333485604051610850939291906117de565b60405180910390a182935050505090565b60006002811115610875576108746111f7565b5b600060149054906101000a900460ff166002811115610897576108966111f7565b5b146108a5576108a46113f4565b5b6108ad610ff2565b73ffffffffffffffffffffffffffffffffffffffff166108cb610cc8565b73ffffffffffffffffffffffffffffffffffffffff1614610921576040517f08c379a000000000000000000000000000000000000000000000000000000000815260040161091890611861565b60405180910390fd5b6002600060146101000a81548160ff02191690836002811115610947576109466111f7565b5b0217905550600180808054905061095e91906118b0565b8154811061096f5761096e6118e4565b5b9060005260206000200160009054906101000a900473ffffffffffffffffffffffffffffffffffffffff16600260006101000a81548173ffffffffffffffffffffffffffffffffffffffff021916908373ffffffffffffffffffffffffffffffffffffffff16021790555060004790506109e7610aae565b600260009054906101000a900473ffffffffffffffffffffffffffffffffffffffff1673ffffffffffffffffffffffffffffffffffffffff166108fc479081150290604051600060405180830381858888f19350505050158015610a4f573d6000803e3d6000fd5b507f3cf1af53e79884a92609ce59db1ec9f584d88e2d14c8eaba43a21db81318301e600260009054906101000a900473ffffffffffffffffffffffffffffffffffffffff1682604051610aa39291906115c0565b60405180910390a150565b610ab6610ff2565b73ffffffffffffffffffffffffffffffffffffffff16610ad4610cc8565b73ffffffffffffffffffffffffffffffffffffffff1614610b2a576040517f08c379a0000000000000000000000000000000000000000000000000000000008152600401610b2190611861565b60405180910390fd5b60016002811115610b3e57610b3d6111f7565b5b600060149054906101000a900460ff166002811115610b6057610b5f6111f7565b5b03610ba0576040517f08c379a0000000000000000000000000000000000000000000000000000000008152600401610b979061195f565b60405180910390fd5b600067ffffffffffffffff811115610bbb57610bba61197f565b5b604051908082528060200260200182016040528015610be95781602001602082028036833780820191505090505b5060019080519060200190610bff9291906110be565b506001600060146101000a81548160ff02191690836002811115610c2657610c256111f7565b5b0217905550565b610c35610ff2565b73ffffffffffffffffffffffffffffffffffffffff16610c53610cc8565b73ffffffffffffffffffffffffffffffffffffffff1614610ca9576040517f08c379a0000000000000000000000000000000000000000000000000000000008152600401610ca090611861565b60405180910390fd5b610cb36000610ffa565b565b600060149054906101000a900460ff1681565b60008060009054906101000a900473ffffffffffffffffffffffffffffffffffffffff16905090565b610cf9610ff2565b73ffffffffffffffffffffffffffffffffffffffff16610d17610cc8565b73ffffffffffffffffffffffffffffffffffffffff1614610d6d576040517f08c379a0000000000000000000000000000000000000000000000000000000008152600401610d6490611861565b60405180910390fd5b60016002811115610d8157610d806111f7565b5b600060149054906101000a900460ff166002811115610da357610da26111f7565b5b14610de3576040517f08c379a0000000000000000000000000000000000000000000000000000000008152600401610dda906119fa565b60405180910390fd5b60008060146101000a81548160ff02191690836002811115610e0857610e076111f7565b5b0217905550565b600360009054906101000a900473ffffffffffffffffffffffffffffffffffffffff1681565b60008044426001604051602001610e4e93929190611b59565b6040516020818303038152906040528051906020012060001c90508091505090565b610e78610ff2565b73ffffffffffffffffffffffffffffffffffffffff16610e96610cc8565b73ffffffffffffffffffffffffffffffffffffffff1614610eec576040517f08c379a0000000000000000000000000000000000000000000000000000000008152600401610ee390611861565b60405180910390fd5b600073ffffffffffffffffffffffffffffffffffffffff168173ffffffffffffffffffffffffffffffffffffffff1603610f5b576040517f08c379a0000000000000000000000000000000000000000000000000000000008152600401610f5290611c04565b60405180910390fd5b610f6481610ffa565b50565b60018181548110610f7757600080fd5b906000526020600020016000915054906101000a900473ffffffffffffffffffffffffffffffffffffffff1681565b600460009054906101000a900473ffffffffffffffffffffffffffffffffffffffff1681565b600260009054906101000a900473ffffffffffffffffffffffffffffffffffffffff1681565b600033905090565b60008060009054906101000a900473ffffffffffffffffffffffffffffffffffffffff169050816000806101000a81548173ffffffffffffffffffffffffffffffffffffffff021916908373ffffffffffffffffffffffffffffffffffffffff1602179055508173ffffffffffffffffffffffffffffffffffffffff168173ffffffffffffffffffffffffffffffffffffffff167f8be0079c531659141344cd1fd0a4f28419497f9722a3daafe3b4186f6b6457e060405160405180910390a35050565b828054828255906000526020600020908101928215611137579160200282015b828111156111365782518260006101000a81548173ffffffffffffffffffffffffffffffffffffffff021916908373ffffffffffffffffffffffffffffffffffffffff160217905550916020019190600101906110de565b5b5090506111449190611148565b5090565b5b80821115611161576000816000905550600101611149565b5090565b600080fd5b6000819050919050565b61117d8161116a565b811461118857600080fd5b50565b60008135905061119a81611174565b92915050565b6000602082840312156111b6576111b5611165565b5b60006111c48482850161118b565b91505092915050565b6111d68161116a565b82525050565b60006020820190506111f160008301846111cd565b92915050565b7f4e487b7100000000000000000000000000000000000000000000000000000000600052602160045260246000fd5b60038110611237576112366111f7565b5b50565b600081905061124882611226565b919050565b60006112588261123a565b9050919050565b6112688161124d565b82525050565b6000602082019050611283600083018461125f565b92915050565b600073ffffffffffffffffffffffffffffffffffffffff82169050919050565b60006112b482611289565b9050919050565b6112c4816112a9565b82525050565b60006020820190506112df60008301846112bb565b92915050565b6112ee816112a9565b81146112f957600080fd5b50565b60008135905061130b816112e5565b92915050565b60006020828403121561132757611326611165565b5b6000611335848285016112fc565b91505092915050565b600061134982611289565b9050919050565b6113598161133e565b82525050565b60006020820190506113746000830184611350565b92915050565b6000819050919050565b600061139f61139a61139584611289565b61137a565b611289565b9050919050565b60006113b182611384565b9050919050565b60006113c3826113a6565b9050919050565b6113d3816113b8565b82525050565b60006020820190506113ee60008301846113ca565b92915050565b7f4e487b7100000000000000000000000000000000000000000000000000000000600052600160045260246000fd5b60008151905061143281611174565b92915050565b60006020828403121561144e5761144d611165565b5b600061145c84828501611423565b91505092915050565b600082825260208201905092915050565b7f596f75206e65656420746f20617070726f7665206c6f7474657279546f6b656e60008201527f732066726f6d20746865206c6f747465727920636f6e7472616374206669727360208201527f7400000000000000000000000000000000000000000000000000000000000000604082015250565b60006114f8604183611465565b915061150382611476565b606082019050919050565b60006020820190508181036000830152611527816114eb565b9050919050565b7f4d696e696d756d20313030204c6f7474657279546f6b656e7320746f20656e7460008201527f6572000000000000000000000000000000000000000000000000000000000000602082015250565b600061158a602283611465565b91506115958261152e565b604082019050919050565b600060208201905081810360008301526115b98161157d565b9050919050565b60006040820190506115d560008301856112bb565b6115e260208301846111cd565b9392505050565b7f53656e64206f6e6c7920302e312045544820746f206275792031303020746f6b60008201527f656e730000000000000000000000000000000000000000000000000000000000602082015250565b6000611645602383611465565b9150611650826115e9565b604082019050919050565b6000602082019050818103600083015261167481611638565b9050919050565b7f56656e646f7220636f6e747261637420686173206e6f7420656e6f756768207460008201527f6f6b656e7320696e206974732062616c616e6365000000000000000000000000602082015250565b60006116d7603483611465565b91506116e28261167b565b604082019050919050565b60006020820190508181036000830152611706816116ca565b9050919050565b60008115159050919050565b6117228161170d565b811461172d57600080fd5b50565b60008151905061173f81611719565b92915050565b60006020828403121561175b5761175a611165565b5b600061176984828501611730565b91505092915050565b7f4661696c656420746f207472616e7366657220746f6b656e20746f2075736572600082015250565b60006117a8602083611465565b91506117b382611772565b602082019050919050565b600060208201905081810360008301526117d78161179b565b9050919050565b60006060820190506117f360008301866112bb565b61180060208301856111cd565b61180d60408301846111cd565b949350505050565b7f4f776e61626c653a2063616c6c6572206973206e6f7420746865206f776e6572600082015250565b600061184b602083611465565b915061185682611815565b602082019050919050565b6000602082019050818103600083015261187a8161183e565b9050919050565b7f4e487b7100000000000000000000000000000000000000000000000000000000600052601160045260246000fd5b60006118bb8261116a565b91506118c68361116a565b9250828210156118d9576118d8611881565b5b828203905092915050565b7f4e487b7100000000000000000000000000000000000000000000000000000000600052603260045260246000fd5b7f4c6f747465727920616c726561647920636c6f73656400000000000000000000600082015250565b6000611949601683611465565b915061195482611913565b602082019050919050565b600060208201905081810360008301526119788161193c565b9050919050565b7f4e487b7100000000000000000000000000000000000000000000000000000000600052604160045260246000fd5b7f4c6f747465727920616c7265616479206f70656e000000000000000000000000600082015250565b60006119e4601483611465565b91506119ef826119ae565b602082019050919050565b60006020820190508181036000830152611a13816119d7565b9050919050565b6000819050919050565b611a35611a308261116a565b611a1a565b82525050565b600081549050919050565b600081905092915050565b60008190508160005260206000209050919050565b611a6f8161133e565b82525050565b6000611a818383611a66565b60208301905092915050565b60008160001c9050919050565b600073ffffffffffffffffffffffffffffffffffffffff82169050919050565b6000611acd611ac883611a8d565b611a9a565b9050919050565b6000611ae08254611aba565b9050919050565b6000600182019050919050565b6000611aff82611a3b565b611b098185611a46565b9350611b1483611a51565b8060005b83811015611b4c57611b2982611ad4565b611b338882611a75565b9750611b3e83611ae7565b925050600181019050611b18565b5085935050505092915050565b6000611b658286611a24565b602082019150611b758285611a24565b602082019150611b858284611af4565b9150819050949350505050565b7f4f776e61626c653a206e6577206f776e657220697320746865207a65726f206160008201527f6464726573730000000000000000000000000000000000000000000000000000602082015250565b6000611bee602683611465565b9150611bf982611b92565b604082019050919050565b60006020820190508181036000830152611c1d81611be1565b905091905056fea2646970667358221220a006b18b7bee6922299a313aa04264e91d83eff97a1a65b00f13b9085c6dbe9c64736f6c634300080d0033",
  "immutableReferences": {},
  "source": "// SPDX-License-Identifier: GPL-3.0\n\npragma solidity >=0.4.22 <0.9.0;\n\nimport \"@openzeppelin/contracts/access/Ownable.sol\";\n\nimport \"./Events.sol\";\nimport \"./LotteryToken.sol\";\n\ncontract Lottery is Ownable, Events {\n    enum LOTTERY_STATE {\n        OPEN,\n        CLOSED,\n        CALCULATING_WINNER\n    }\n    LOTTERY_STATE public lottery_state;\n    uint256 private constant _PRIZE_FUND = 1000;\n    address payable[] public players;\n    address public lastWinner;\n    address public saleTokens;\n\n    LotteryToken public token;\n\n    constructor(address tokenAddress) {\n        token = LotteryToken(tokenAddress);\n        lottery_state = LOTTERY_STATE.OPEN;\n    }\n\n    modifier lotteryIsOpen() {\n        assert(lottery_state == LOTTERY_STATE.OPEN);\n        _;\n    }\n\n    function closeLottery() public onlyOwner {\n        require(\n            lottery_state != LOTTERY_STATE.CLOSED,\n            \"Lottery already closed\"\n        );\n        // reset dynamic memory array\n        players = new address payable[](0);\n        lottery_state = LOTTERY_STATE.CLOSED;\n    }\n\n    function openLottery() public onlyOwner {\n        require(lottery_state == LOTTERY_STATE.CLOSED, \"Lottery already open\");\n        lottery_state = LOTTERY_STATE.OPEN;\n    }\n\n    function buyLotteryTokens()\n        external\n        payable\n        lotteryIsOpen\n        returns (uint256 tokenAmount)\n    {\n        // 0.1 ether == \"100000000000000000\"\n        require(msg.value == 0.1 ether, \"Send only 0.1 ETH to buy 100 tokens\");\n\n        // Can only buy 100 at a time.\n        uint256 amountToBuy = 100;\n\n        emit Log(msg.sender, amountToBuy);\n        // basically this on cmd lotteryToken.balanceOf(lottery.address)\n        uint256 lotteryTokenBalance = token.balanceOf(address(this));\n        require(\n            lotteryTokenBalance >= amountToBuy,\n            \"Vendor contract has not enough tokens in its balance\"\n        );\n\n        // Contract A calls Contract B\n        // _transfer(lotteryContract, account[1], amountToBuy);\n        bool sent = token.transfer(msg.sender, amountToBuy);\n        require(sent, \"Failed to transfer token to user\");\n\n        emit BuyTokens(msg.sender, msg.value, amountToBuy);\n\n        return amountToBuy;\n    }\n\n    function enterLottery(uint256 lotteryTokensAmountToEnter)\n        external\n        lotteryIsOpen\n    {\n        uint256 playerBalance = token.balanceOf(msg.sender);\n        require(\n            playerBalance >= 0,\n            \"You need to approve lotteryTokens from the lottery contract first\"\n        );\n        require(\n            lotteryTokensAmountToEnter >= 100,\n            \"Minimum 100 LotteryTokens to enter\"\n        );\n\n        // does not work\n        // token.approve(address(this), amountToEnter)\n        // because Lottery calls LotteryToken and msg.sender becomes Lottery in LotteryToken.approve\n        // not the msg.sender of the call to enterLottery()\n        // Contract A calls Contract B\n\n        token.burnFrom(msg.sender, lotteryTokensAmountToEnter);\n        players.push(payable(msg.sender));\n\n        emit Log(address(this), lotteryTokensAmountToEnter);\n    }\n\n    function getRandomNumber() public view returns (uint256) {\n        uint256 rnd = uint256(\n            keccak256(\n                abi.encodePacked(block.difficulty, block.timestamp, players)\n            )\n        );\n\n        return rnd;\n    }\n\n    function pickWinner() public lotteryIsOpen onlyOwner {\n        lottery_state = LOTTERY_STATE.CALCULATING_WINNER;\n\n        // TODO with getRandomNumber()\n        lastWinner = players[players.length - 1];\n        uint256 winnings = address(this).balance;\n\n        closeLottery();\n\n        payable(lastWinner).transfer(address(this).balance);\n\n        emit WinnerDeclared(lastWinner, winnings);\n    }\n\n    //    function isParticipate(address _participant) private view returns (bool) {\n    //        for (uint256 i = 0; i < players.length; i++) {\n    //            if (players[i] == _participant) {\n    //                return true;\n    //            }\n    //        }\n    //        return false;\n    //    }\n}\n\n// cmds\n\n// const lottery  = await Lottery.deployed()\n// const lotteryToken  = await LotteryToken.deployed()\n\n// web3.eth.getBalance(lottery.address);  // no eth\n// lotteryToken.balanceOf(lottery.address) // gives lottery quota 1000000\n\n// await lotteryToken.totalSupply() // gives max coins 2500000\n\n// lotteryToken.balanceOf(accounts[1])  0\n\n// lottery.buyLotteryTokens({ from:accounts[1], value:\"100000000000000000\"})\n\n// must approve from the token first.\n// lotteryToken.allowance(accounts[1], lottery.address) // 0\n// lotteryToken.approve(lottery.address, \"100\", { from:accounts[1] }); // owner => (spender => amount)\n// lotteryToken.allowance(accounts[1], lottery.address) // 100\n\n// Now enter and use the transferFrom\n// const res = await lottery.enterLottery(\"100\", { from:accounts[1] })\n\n// Other\n// res.logs[1].args.amount\n\n// fromWei converts any wei value into a ether value.\n// const amountToBuy =  web3.utils.fromWei(\"100000000000000000\")\n",
  "sourcePath": "/Users/zak/Dropbox/Code/dapps/lottery/contracts/Lottery.sol",
  "compiler": {
    "name": "solc",
    "version": "0.8.13+commit.abaa5c0e.Emscripten.clang"
  },
  "schemaVersion": "3.4.7",
  "updatedAt": "2022-06-03T13:17:12.084Z",
  "networkType": "ethereum",
  "devdoc": {
    "kind": "dev",
    "methods": {
      "owner()": {
        "details": "Returns the address of the current owner."
      },
      "renounceOwnership()": {
        "details": "Leaves the contract without owner. It will not be possible to call `onlyOwner` functions anymore. Can only be called by the current owner. NOTE: Renouncing ownership will leave the contract without an owner, thereby removing any functionality that is only available to the owner."
      },
      "transferOwnership(address)": {
        "details": "Transfers ownership of the contract to a new account (`newOwner`). Can only be called by the current owner."
      }
    },
    "version": 1
  },
  "userdoc": {
    "kind": "user",
    "methods": {},
    "version": 1
  }
}