{
  "contractName": "LotteryToken",
  "abi": [
    {
      "inputs": [
        {
          "internalType": "uint256",
          "name": "_MAX_COINS",
          "type": "uint256"
        }
      ],
      "stateMutability": "nonpayable",
      "type": "constructor"
    },
    {
      "anonymous": false,
      "inputs": [
        {
          "indexed": true,
          "internalType": "address",
          "name": "owner",
          "type": "address"
        },
        {
          "indexed": true,
          "internalType": "address",
          "name": "spender",
          "type": "address"
        },
        {
          "indexed": false,
          "internalType": "uint256",
          "name": "value",
          "type": "uint256"
        }
      ],
      "name": "Approval",
      "type": "event"
    },
    {
      "anonymous": false,
      "inputs": [
        {
          "indexed": true,
          "internalType": "address",
          "name": "previousOwner",
          "type": "address"
        },
        {
          "indexed": true,
          "internalType": "address",
          "name": "newOwner",
          "type": "address"
        }
      ],
      "name": "OwnershipTransferred",
      "type": "event"
    },
    {
      "anonymous": false,
      "inputs": [
        {
          "indexed": true,
          "internalType": "address",
          "name": "from",
          "type": "address"
        },
        {
          "indexed": true,
          "internalType": "address",
          "name": "to",
          "type": "address"
        },
        {
          "indexed": false,
          "internalType": "uint256",
          "name": "value",
          "type": "uint256"
        }
      ],
      "name": "Transfer",
      "type": "event"
    },
    {
      "inputs": [
        {
          "internalType": "address",
          "name": "owner",
          "type": "address"
        },
        {
          "internalType": "address",
          "name": "spender",
          "type": "address"
        }
      ],
      "name": "allowance",
      "outputs": [
        {
          "internalType": "uint256",
          "name": "",
          "type": "uint256"
        }
      ],
      "stateMutability": "view",
      "type": "function",
      "constant": true
    },
    {
      "inputs": [
        {
          "internalType": "address",
          "name": "spender",
          "type": "address"
        },
        {
          "internalType": "uint256",
          "name": "amount",
          "type": "uint256"
        }
      ],
      "name": "approve",
      "outputs": [
        {
          "internalType": "bool",
          "name": "",
          "type": "bool"
        }
      ],
      "stateMutability": "nonpayable",
      "type": "function"
    },
    {
      "inputs": [
        {
          "internalType": "address",
          "name": "account",
          "type": "address"
        }
      ],
      "name": "balanceOf",
      "outputs": [
        {
          "internalType": "uint256",
          "name": "",
          "type": "uint256"
        }
      ],
      "stateMutability": "view",
      "type": "function",
      "constant": true
    },
    {
      "inputs": [
        {
          "internalType": "uint256",
          "name": "amount",
          "type": "uint256"
        }
      ],
      "name": "burn",
      "outputs": [],
      "stateMutability": "nonpayable",
      "type": "function"
    },
    {
      "inputs": [
        {
          "internalType": "address",
          "name": "account",
          "type": "address"
        },
        {
          "internalType": "uint256",
          "name": "amount",
          "type": "uint256"
        }
      ],
      "name": "burnFrom",
      "outputs": [],
      "stateMutability": "nonpayable",
      "type": "function"
    },
    {
      "inputs": [],
      "name": "cap",
      "outputs": [
        {
          "internalType": "uint256",
          "name": "",
          "type": "uint256"
        }
      ],
      "stateMutability": "view",
      "type": "function",
      "constant": true
    },
    {
      "inputs": [],
      "name": "decimals",
      "outputs": [
        {
          "internalType": "uint8",
          "name": "",
          "type": "uint8"
        }
      ],
      "stateMutability": "view",
      "type": "function",
      "constant": true
    },
    {
      "inputs": [
        {
          "internalType": "address",
          "name": "spender",
          "type": "address"
        },
        {
          "internalType": "uint256",
          "name": "subtractedValue",
          "type": "uint256"
        }
      ],
      "name": "decreaseAllowance",
      "outputs": [
        {
          "internalType": "bool",
          "name": "",
          "type": "bool"
        }
      ],
      "stateMutability": "nonpayable",
      "type": "function"
    },
    {
      "inputs": [
        {
          "internalType": "address",
          "name": "spender",
          "type": "address"
        },
        {
          "internalType": "uint256",
          "name": "addedValue",
          "type": "uint256"
        }
      ],
      "name": "increaseAllowance",
      "outputs": [
        {
          "internalType": "bool",
          "name": "",
          "type": "bool"
        }
      ],
      "stateMutability": "nonpayable",
      "type": "function"
    },
    {
      "inputs": [],
      "name": "name",
      "outputs": [
        {
          "internalType": "string",
          "name": "",
          "type": "string"
        }
      ],
      "stateMutability": "view",
      "type": "function",
      "constant": true
    },
    {
      "inputs": [],
      "name": "owner",
      "outputs": [
        {
          "internalType": "address",
          "name": "",
          "type": "address"
        }
      ],
      "stateMutability": "view",
      "type": "function",
      "constant": true
    },
    {
      "inputs": [],
      "name": "renounceOwnership",
      "outputs": [],
      "stateMutability": "nonpayable",
      "type": "function"
    },
    {
      "inputs": [],
      "name": "symbol",
      "outputs": [
        {
          "internalType": "string",
          "name": "",
          "type": "string"
        }
      ],
      "stateMutability": "view",
      "type": "function",
      "constant": true
    },
    {
      "inputs": [],
      "name": "totalSupply",
      "outputs": [
        {
          "internalType": "uint256",
          "name": "",
          "type": "uint256"
        }
      ],
      "stateMutability": "view",
      "type": "function",
      "constant": true
    },
    {
      "inputs": [
        {
          "internalType": "address",
          "name": "to",
          "type": "address"
        },
        {
          "internalType": "uint256",
          "name": "amount",
          "type": "uint256"
        }
      ],
      "name": "transfer",
      "outputs": [
        {
          "internalType": "bool",
          "name": "",
          "type": "bool"
        }
      ],
      "stateMutability": "nonpayable",
      "type": "function"
    },
    {
      "inputs": [
        {
          "internalType": "address",
          "name": "from",
          "type": "address"
        },
        {
          "internalType": "address",
          "name": "to",
          "type": "address"
        },
        {
          "internalType": "uint256",
          "name": "amount",
          "type": "uint256"
        }
      ],
      "name": "transferFrom",
      "outputs": [
        {
          "internalType": "bool",
          "name": "",
          "type": "bool"
        }
      ],
      "stateMutability": "nonpayable",
      "type": "function"
    },
    {
      "inputs": [
        {
          "internalType": "address",
          "name": "newOwner",
          "type": "address"
        }
      ],
      "name": "transferOwnership",
      "outputs": [],
      "stateMutability": "nonpayable",
      "type": "function"
    }
  ],
  "bytecode": "0x60a06040523480156200001157600080fd5b50604051620024bd380380620024bd833981810160405281019062000037919062000555565b806040518060400160405280600a81526020017f4c6f74746f546f6b656e000000000000000000000000000000000000000000008152506040518060400160405280600381526020017f4c4f5400000000000000000000000000000000000000000000000000000000008152508160039080519060200190620000bc92919062000465565b508060049080519060200190620000d592919062000465565b505050600081116200011e576040517f08c379a00000000000000000000000000000000000000000000000000000000081526004016200011590620005e8565b60405180910390fd5b806080818152505050620001476200013b6200016060201b60201c565b6200016860201b60201c565b6200015933826200022e60201b60201c565b506200080c565b600033905090565b6000600560009054906101000a900473ffffffffffffffffffffffffffffffffffffffff16905081600560006101000a81548173ffffffffffffffffffffffffffffffffffffffff021916908373ffffffffffffffffffffffffffffffffffffffff1602179055508173ffffffffffffffffffffffffffffffffffffffff168173ffffffffffffffffffffffffffffffffffffffff167f8be0079c531659141344cd1fd0a4f28419497f9722a3daafe3b4186f6b6457e060405160405180910390a35050565b6200024582826200024960201b620007b81760201c565b5050565b62000259620002da60201b60201c565b816200026f620002e460201b620004271760201c565b6200027b919062000639565b1115620002bf576040517f08c379a0000000000000000000000000000000000000000000000000000000008152600401620002b690620006e6565b60405180910390fd5b620002d68282620002ee60201b620008221760201c565b5050565b6000608051905090565b6000600254905090565b600073ffffffffffffffffffffffffffffffffffffffff168273ffffffffffffffffffffffffffffffffffffffff160362000360576040517f08c379a0000000000000000000000000000000000000000000000000000000008152600401620003579062000758565b60405180910390fd5b62000374600083836200045b60201b60201c565b806002600082825462000388919062000639565b92505081905550806000808473ffffffffffffffffffffffffffffffffffffffff1673ffffffffffffffffffffffffffffffffffffffff168152602001908152602001600020600082825401925050819055508173ffffffffffffffffffffffffffffffffffffffff16600073ffffffffffffffffffffffffffffffffffffffff167fddf252ad1be2c89b69c2b068fc378daa952ba7f163c4a11628f55a4df523b3ef836040516200043b91906200078b565b60405180910390a362000457600083836200046060201b60201c565b5050565b505050565b505050565b8280546200047390620007d7565b90600052602060002090601f016020900481019282620004975760008555620004e3565b82601f10620004b257805160ff1916838001178555620004e3565b82800160010185558215620004e3579182015b82811115620004e2578251825591602001919060010190620004c5565b5b509050620004f29190620004f6565b5090565b5b8082111562000511576000816000905550600101620004f7565b5090565b600080fd5b6000819050919050565b6200052f816200051a565b81146200053b57600080fd5b50565b6000815190506200054f8162000524565b92915050565b6000602082840312156200056e576200056d62000515565b5b60006200057e848285016200053e565b91505092915050565b600082825260208201905092915050565b7f45524332304361707065643a2063617020697320300000000000000000000000600082015250565b6000620005d060158362000587565b9150620005dd8262000598565b602082019050919050565b600060208201905081810360008301526200060381620005c1565b9050919050565b7f4e487b7100000000000000000000000000000000000000000000000000000000600052601160045260246000fd5b600062000646826200051a565b915062000653836200051a565b9250827fffffffffffffffffffffffffffffffffffffffffffffffffffffffffffffffff038211156200068b576200068a6200060a565b5b828201905092915050565b7f45524332304361707065643a2063617020657863656564656400000000000000600082015250565b6000620006ce60198362000587565b9150620006db8262000696565b602082019050919050565b600060208201905081810360008301526200070181620006bf565b9050919050565b7f45524332303a206d696e7420746f20746865207a65726f206164647265737300600082015250565b600062000740601f8362000587565b91506200074d8262000708565b602082019050919050565b60006020820190508181036000830152620007738162000731565b9050919050565b62000785816200051a565b82525050565b6000602082019050620007a260008301846200077a565b92915050565b7f4e487b7100000000000000000000000000000000000000000000000000000000600052602260045260246000fd5b60006002820490506001821680620007f057607f821691505b602082108103620008065762000805620007a8565b5b50919050565b608051611c9562000828600039600061046d0152611c956000f3fe608060405234801561001057600080fd5b506004361061010b5760003560e01c806370a08231116100a257806395d89b411161007157806395d89b41146102a8578063a457c2d7146102c6578063a9059cbb146102f6578063dd62ed3e14610326578063f2fde38b146103565761010b565b806370a0823114610234578063715018a61461026457806379cc67901461026e5780638da5cb5b1461028a5761010b565b8063313ce567116100de578063313ce567146101ac578063355274ea146101ca57806339509351146101e857806342966c68146102185761010b565b806306fdde0314610110578063095ea7b31461012e57806318160ddd1461015e57806323b872dd1461017c575b600080fd5b610118610372565b60405161012591906111ff565b60405180910390f35b610148600480360381019061014391906112ba565b610404565b6040516101559190611315565b60405180910390f35b610166610427565b604051610173919061133f565b60405180910390f35b6101966004803603810190610191919061135a565b610431565b6040516101a39190611315565b60405180910390f35b6101b4610460565b6040516101c191906113c9565b60405180910390f35b6101d2610469565b6040516101df919061133f565b60405180910390f35b61020260048036038101906101fd91906112ba565b610491565b60405161020f9190611315565b60405180910390f35b610232600480360381019061022d91906113e4565b6104c8565b005b61024e60048036038101906102499190611411565b6104dc565b60405161025b919061133f565b60405180910390f35b61026c610524565b005b610288600480360381019061028391906112ba565b610538565b005b610292610558565b60405161029f919061144d565b60405180910390f35b6102b0610582565b6040516102bd91906111ff565b60405180910390f35b6102e060048036038101906102db91906112ba565b610614565b6040516102ed9190611315565b60405180910390f35b610310600480360381019061030b91906112ba565b61068b565b60405161031d9190611315565b60405180910390f35b610340600480360381019061033b9190611468565b6106ae565b60405161034d919061133f565b60405180910390f35b610370600480360381019061036b9190611411565b610735565b005b606060038054610381906114d7565b80601f01602080910402602001604051908101604052809291908181526020018280546103ad906114d7565b80156103fa5780601f106103cf576101008083540402835291602001916103fa565b820191906000526020600020905b8154815290600101906020018083116103dd57829003601f168201915b5050505050905090565b60008061040f610978565b905061041c818585610980565b600191505092915050565b6000600254905090565b60008061043c610978565b9050610449858285610b49565b610454858585610bd5565b60019150509392505050565b60006012905090565b60007f0000000000000000000000000000000000000000000000000000000000000000905090565b60008061049c610978565b90506104bd8185856104ae85896106ae565b6104b89190611537565b610980565b600191505092915050565b6104d96104d3610978565b82610e4b565b50565b60008060008373ffffffffffffffffffffffffffffffffffffffff1673ffffffffffffffffffffffffffffffffffffffff168152602001908152602001600020549050919050565b61052c611018565b6105366000611096565b565b61054a82610544610978565b83610b49565b6105548282610e4b565b5050565b6000600560009054906101000a900473ffffffffffffffffffffffffffffffffffffffff16905090565b606060048054610591906114d7565b80601f01602080910402602001604051908101604052809291908181526020018280546105bd906114d7565b801561060a5780601f106105df5761010080835404028352916020019161060a565b820191906000526020600020905b8154815290600101906020018083116105ed57829003601f168201915b5050505050905090565b60008061061f610978565b9050600061062d82866106ae565b905083811015610672576040517f08c379a0000000000000000000000000000000000000000000000000000000008152600401610669906115ff565b60405180910390fd5b61067f8286868403610980565b60019250505092915050565b600080610696610978565b90506106a3818585610bd5565b600191505092915050565b6000600160008473ffffffffffffffffffffffffffffffffffffffff1673ffffffffffffffffffffffffffffffffffffffff16815260200190815260200160002060008373ffffffffffffffffffffffffffffffffffffffff1673ffffffffffffffffffffffffffffffffffffffff16815260200190815260200160002054905092915050565b61073d611018565b600073ffffffffffffffffffffffffffffffffffffffff168173ffffffffffffffffffffffffffffffffffffffff16036107ac576040517f08c379a00000000000000000000000000000000000000000000000000000000081526004016107a390611691565b60405180910390fd5b6107b581611096565b50565b6107c0610469565b816107c9610427565b6107d39190611537565b1115610814576040517f08c379a000000000000000000000000000000000000000000000000000000000815260040161080b906116fd565b60405180910390fd5b61081e8282610822565b5050565b600073ffffffffffffffffffffffffffffffffffffffff168273ffffffffffffffffffffffffffffffffffffffff1603610891576040517f08c379a000000000000000000000000000000000000000000000000000000000815260040161088890611769565b60405180910390fd5b61089d6000838361115c565b80600260008282546108af9190611537565b92505081905550806000808473ffffffffffffffffffffffffffffffffffffffff1673ffffffffffffffffffffffffffffffffffffffff168152602001908152602001600020600082825401925050819055508173ffffffffffffffffffffffffffffffffffffffff16600073ffffffffffffffffffffffffffffffffffffffff167fddf252ad1be2c89b69c2b068fc378daa952ba7f163c4a11628f55a4df523b3ef83604051610960919061133f565b60405180910390a361097460008383611161565b5050565b600033905090565b600073ffffffffffffffffffffffffffffffffffffffff168373ffffffffffffffffffffffffffffffffffffffff16036109ef576040517f08c379a00000000000000000000000000000000000000000000000000000000081526004016109e6906117fb565b60405180910390fd5b600073ffffffffffffffffffffffffffffffffffffffff168273ffffffffffffffffffffffffffffffffffffffff1603610a5e576040517f08c379a0000000000000000000000000000000000000000000000000000000008152600401610a559061188d565b60405180910390fd5b80600160008573ffffffffffffffffffffffffffffffffffffffff1673ffffffffffffffffffffffffffffffffffffffff16815260200190815260200160002060008473ffffffffffffffffffffffffffffffffffffffff1673ffffffffffffffffffffffffffffffffffffffff168152602001908152602001600020819055508173ffffffffffffffffffffffffffffffffffffffff168373ffffffffffffffffffffffffffffffffffffffff167f8c5be1e5ebec7d5bd14f71427d1e84f3dd0314c0f7b2291e5b200ac8c7c3b92583604051610b3c919061133f565b60405180910390a3505050565b6000610b5584846106ae565b90507fffffffffffffffffffffffffffffffffffffffffffffffffffffffffffffffff8114610bcf5781811015610bc1576040517f08c379a0000000000000000000000000000000000000000000000000000000008152600401610bb8906118f9565b60405180910390fd5b610bce8484848403610980565b5b50505050565b600073ffffffffffffffffffffffffffffffffffffffff168373ffffffffffffffffffffffffffffffffffffffff1603610c44576040517f08c379a0000000000000000000000000000000000000000000000000000000008152600401610c3b9061198b565b60405180910390fd5b600073ffffffffffffffffffffffffffffffffffffffff168273ffffffffffffffffffffffffffffffffffffffff1603610cb3576040517f08c379a0000000000000000000000000000000000000000000000000000000008152600401610caa90611a1d565b60405180910390fd5b610cbe83838361115c565b60008060008573ffffffffffffffffffffffffffffffffffffffff1673ffffffffffffffffffffffffffffffffffffffff16815260200190815260200160002054905081811015610d44576040517f08c379a0000000000000000000000000000000000000000000000000000000008152600401610d3b90611aaf565b60405180910390fd5b8181036000808673ffffffffffffffffffffffffffffffffffffffff1673ffffffffffffffffffffffffffffffffffffffff16815260200190815260200160002081905550816000808573ffffffffffffffffffffffffffffffffffffffff1673ffffffffffffffffffffffffffffffffffffffff168152602001908152602001600020600082825401925050819055508273ffffffffffffffffffffffffffffffffffffffff168473ffffffffffffffffffffffffffffffffffffffff167fddf252ad1be2c89b69c2b068fc378daa952ba7f163c4a11628f55a4df523b3ef84604051610e32919061133f565b60405180910390a3610e45848484611161565b50505050565b600073ffffffffffffffffffffffffffffffffffffffff168273ffffffffffffffffffffffffffffffffffffffff1603610eba576040517f08c379a0000000000000000000000000000000000000000000000000000000008152600401610eb190611b41565b60405180910390fd5b610ec68260008361115c565b60008060008473ffffffffffffffffffffffffffffffffffffffff1673ffffffffffffffffffffffffffffffffffffffff16815260200190815260200160002054905081811015610f4c576040517f08c379a0000000000000000000000000000000000000000000000000000000008152600401610f4390611bd3565b60405180910390fd5b8181036000808573ffffffffffffffffffffffffffffffffffffffff1673ffffffffffffffffffffffffffffffffffffffff1681526020019081526020016000208190555081600260008282540392505081905550600073ffffffffffffffffffffffffffffffffffffffff168373ffffffffffffffffffffffffffffffffffffffff167fddf252ad1be2c89b69c2b068fc378daa952ba7f163c4a11628f55a4df523b3ef84604051610fff919061133f565b60405180910390a361101383600084611161565b505050565b611020610978565b73ffffffffffffffffffffffffffffffffffffffff1661103e610558565b73ffffffffffffffffffffffffffffffffffffffff1614611094576040517f08c379a000000000000000000000000000000000000000000000000000000000815260040161108b90611c3f565b60405180910390fd5b565b6000600560009054906101000a900473ffffffffffffffffffffffffffffffffffffffff16905081600560006101000a81548173ffffffffffffffffffffffffffffffffffffffff021916908373ffffffffffffffffffffffffffffffffffffffff1602179055508173ffffffffffffffffffffffffffffffffffffffff168173ffffffffffffffffffffffffffffffffffffffff167f8be0079c531659141344cd1fd0a4f28419497f9722a3daafe3b4186f6b6457e060405160405180910390a35050565b505050565b505050565b600081519050919050565b600082825260208201905092915050565b60005b838110156111a0578082015181840152602081019050611185565b838111156111af576000848401525b50505050565b6000601f19601f8301169050919050565b60006111d182611166565b6111db8185611171565b93506111eb818560208601611182565b6111f4816111b5565b840191505092915050565b6000602082019050818103600083015261121981846111c6565b905092915050565b600080fd5b600073ffffffffffffffffffffffffffffffffffffffff82169050919050565b600061125182611226565b9050919050565b61126181611246565b811461126c57600080fd5b50565b60008135905061127e81611258565b92915050565b6000819050919050565b61129781611284565b81146112a257600080fd5b50565b6000813590506112b48161128e565b92915050565b600080604083850312156112d1576112d0611221565b5b60006112df8582860161126f565b92505060206112f0858286016112a5565b9150509250929050565b60008115159050919050565b61130f816112fa565b82525050565b600060208201905061132a6000830184611306565b92915050565b61133981611284565b82525050565b60006020820190506113546000830184611330565b92915050565b60008060006060848603121561137357611372611221565b5b60006113818682870161126f565b93505060206113928682870161126f565b92505060406113a3868287016112a5565b9150509250925092565b600060ff82169050919050565b6113c3816113ad565b82525050565b60006020820190506113de60008301846113ba565b92915050565b6000602082840312156113fa576113f9611221565b5b6000611408848285016112a5565b91505092915050565b60006020828403121561142757611426611221565b5b60006114358482850161126f565b91505092915050565b61144781611246565b82525050565b6000602082019050611462600083018461143e565b92915050565b6000806040838503121561147f5761147e611221565b5b600061148d8582860161126f565b925050602061149e8582860161126f565b9150509250929050565b7f4e487b7100000000000000000000000000000000000000000000000000000000600052602260045260246000fd5b600060028204905060018216806114ef57607f821691505b602082108103611502576115016114a8565b5b50919050565b7f4e487b7100000000000000000000000000000000000000000000000000000000600052601160045260246000fd5b600061154282611284565b915061154d83611284565b9250827fffffffffffffffffffffffffffffffffffffffffffffffffffffffffffffffff0382111561158257611581611508565b5b828201905092915050565b7f45524332303a2064656372656173656420616c6c6f77616e63652062656c6f7760008201527f207a65726f000000000000000000000000000000000000000000000000000000602082015250565b60006115e9602583611171565b91506115f48261158d565b604082019050919050565b60006020820190508181036000830152611618816115dc565b9050919050565b7f4f776e61626c653a206e6577206f776e657220697320746865207a65726f206160008201527f6464726573730000000000000000000000000000000000000000000000000000602082015250565b600061167b602683611171565b91506116868261161f565b604082019050919050565b600060208201905081810360008301526116aa8161166e565b9050919050565b7f45524332304361707065643a2063617020657863656564656400000000000000600082015250565b60006116e7601983611171565b91506116f2826116b1565b602082019050919050565b60006020820190508181036000830152611716816116da565b9050919050565b7f45524332303a206d696e7420746f20746865207a65726f206164647265737300600082015250565b6000611753601f83611171565b915061175e8261171d565b602082019050919050565b6000602082019050818103600083015261178281611746565b9050919050565b7f45524332303a20617070726f76652066726f6d20746865207a65726f2061646460008201527f7265737300000000000000000000000000000000000000000000000000000000602082015250565b60006117e5602483611171565b91506117f082611789565b604082019050919050565b60006020820190508181036000830152611814816117d8565b9050919050565b7f45524332303a20617070726f766520746f20746865207a65726f20616464726560008201527f7373000000000000000000000000000000000000000000000000000000000000602082015250565b6000611877602283611171565b91506118828261181b565b604082019050919050565b600060208201905081810360008301526118a68161186a565b9050919050565b7f45524332303a20696e73756666696369656e7420616c6c6f77616e6365000000600082015250565b60006118e3601d83611171565b91506118ee826118ad565b602082019050919050565b60006020820190508181036000830152611912816118d6565b9050919050565b7f45524332303a207472616e736665722066726f6d20746865207a65726f20616460008201527f6472657373000000000000000000000000000000000000000000000000000000602082015250565b6000611975602583611171565b915061198082611919565b604082019050919050565b600060208201905081810360008301526119a481611968565b9050919050565b7f45524332303a207472616e7366657220746f20746865207a65726f206164647260008201527f6573730000000000000000000000000000000000000000000000000000000000602082015250565b6000611a07602383611171565b9150611a12826119ab565b604082019050919050565b60006020820190508181036000830152611a36816119fa565b9050919050565b7f45524332303a207472616e7366657220616d6f756e742065786365656473206260008201527f616c616e63650000000000000000000000000000000000000000000000000000602082015250565b6000611a99602683611171565b9150611aa482611a3d565b604082019050919050565b60006020820190508181036000830152611ac881611a8c565b9050919050565b7f45524332303a206275726e2066726f6d20746865207a65726f2061646472657360008201527f7300000000000000000000000000000000000000000000000000000000000000602082015250565b6000611b2b602183611171565b9150611b3682611acf565b604082019050919050565b60006020820190508181036000830152611b5a81611b1e565b9050919050565b7f45524332303a206275726e20616d6f756e7420657863656564732062616c616e60008201527f6365000000000000000000000000000000000000000000000000000000000000602082015250565b6000611bbd602283611171565b9150611bc882611b61565b604082019050919050565b60006020820190508181036000830152611bec81611bb0565b9050919050565b7f4f776e61626c653a2063616c6c6572206973206e6f7420746865206f776e6572600082015250565b6000611c29602083611171565b9150611c3482611bf3565b602082019050919050565b60006020820190508181036000830152611c5881611c1c565b905091905056fea264697066735822122075a04cca10d873072aca66656ade657e9d433d5d1fed29363acb12be293cca1764736f6c634300080d0033",
  "immutableReferences": {
    "829": [
      {
        "length": 32,
        "start": 1133
      }
    ]
  },
  "source": "// SPDX-License-Identifier: GPL-3.0\n\npragma solidity >=0.4.22 <0.9.0;\n\nimport \"@openzeppelin/contracts/token/ERC20/extensions/ERC20Capped.sol\";\nimport \"@openzeppelin/contracts/token/ERC20/extensions/ERC20Burnable.sol\";\nimport \"@openzeppelin/contracts/access/Ownable.sol\";\n\ncontract LotteryToken is ERC20Capped, ERC20Burnable, Ownable {\n    constructor(uint256 _MAX_COINS)\n        ERC20(\"LottoToken\", \"LOT\")\n        ERC20Capped(_MAX_COINS)\n    {\n        // Owner of the contract is the sender.\n        // msg.sender is account[0] the creator/owner of the contract\n        // Someone needs to be the owner to access the new coins\n        _mint(msg.sender, _MAX_COINS);\n        // before migration finishes coins are in the token balance mapping\n        // lotteryToken.balanceOf(accounts[0])  => 2500000\n    }\n\n    function _mint(address account, uint256 amount)\n        internal\n        override(ERC20, ERC20Capped)\n    {\n        ERC20Capped._mint(account, amount);\n    }\n}\n",
  "sourcePath": "/Users/zak/Dropbox/Code/dapps/lottery/contracts/LotteryToken.sol",
  "compiler": {
    "name": "solc",
    "version": "0.8.13+commit.abaa5c0e.Emscripten.clang"
  },
  "schemaVersion": "3.4.11",
  "updatedAt": "2023-01-11T13:28:21.900Z",
  "networkType": "ethereum",
  "devdoc": {
    "kind": "dev",
    "methods": {
      "allowance(address,address)": {
        "details": "See {IERC20-allowance}."
      },
      "approve(address,uint256)": {
        "details": "See {IERC20-approve}. NOTE: If `amount` is the maximum `uint256`, the allowance is not updated on `transferFrom`. This is semantically equivalent to an infinite approval. Requirements: - `spender` cannot be the zero address."
      },
      "balanceOf(address)": {
        "details": "See {IERC20-balanceOf}."
      },
      "burn(uint256)": {
        "details": "Destroys `amount` tokens from the caller. See {ERC20-_burn}."
      },
      "burnFrom(address,uint256)": {
        "details": "Destroys `amount` tokens from `account`, deducting from the caller's allowance. See {ERC20-_burn} and {ERC20-allowance}. Requirements: - the caller must have allowance for ``accounts``'s tokens of at least `amount`."
      },
      "cap()": {
        "details": "Returns the cap on the token's total supply."
      },
      "decimals()": {
        "details": "Returns the number of decimals used to get its user representation. For example, if `decimals` equals `2`, a balance of `505` tokens should be displayed to a user as `5.05` (`505 / 10 ** 2`). Tokens usually opt for a value of 18, imitating the relationship between Ether and Wei. This is the value {ERC20} uses, unless this function is overridden; NOTE: This information is only used for _display_ purposes: it in no way affects any of the arithmetic of the contract, including {IERC20-balanceOf} and {IERC20-transfer}."
      },
      "decreaseAllowance(address,uint256)": {
        "details": "Atomically decreases the allowance granted to `spender` by the caller. This is an alternative to {approve} that can be used as a mitigation for problems described in {IERC20-approve}. Emits an {Approval} event indicating the updated allowance. Requirements: - `spender` cannot be the zero address. - `spender` must have allowance for the caller of at least `subtractedValue`."
      },
      "increaseAllowance(address,uint256)": {
        "details": "Atomically increases the allowance granted to `spender` by the caller. This is an alternative to {approve} that can be used as a mitigation for problems described in {IERC20-approve}. Emits an {Approval} event indicating the updated allowance. Requirements: - `spender` cannot be the zero address."
      },
      "name()": {
        "details": "Returns the name of the token."
      },
      "owner()": {
        "details": "Returns the address of the current owner."
      },
      "renounceOwnership()": {
        "details": "Leaves the contract without owner. It will not be possible to call `onlyOwner` functions anymore. Can only be called by the current owner. NOTE: Renouncing ownership will leave the contract without an owner, thereby removing any functionality that is only available to the owner."
      },
      "symbol()": {
        "details": "Returns the symbol of the token, usually a shorter version of the name."
      },
      "totalSupply()": {
        "details": "See {IERC20-totalSupply}."
      },
      "transfer(address,uint256)": {
        "details": "See {IERC20-transfer}. Requirements: - `to` cannot be the zero address. - the caller must have a balance of at least `amount`."
      },
      "transferFrom(address,address,uint256)": {
        "details": "See {IERC20-transferFrom}. Emits an {Approval} event indicating the updated allowance. This is not required by the EIP. See the note at the beginning of {ERC20}. NOTE: Does not update the allowance if the current allowance is the maximum `uint256`. Requirements: - `from` and `to` cannot be the zero address. - `from` must have a balance of at least `amount`. - the caller must have allowance for ``from``'s tokens of at least `amount`."
      },
      "transferOwnership(address)": {
        "details": "Transfers ownership of the contract to a new account (`newOwner`). Can only be called by the current owner."
      }
    },
    "version": 1
  },
  "userdoc": {
    "kind": "user",
    "methods": {},
    "version": 1
  }
}